:020000040800F2
:10000000B039012075760108AD050008AF0500087C
:10001000B3050008B7050008BB0500080000000094
:1000200000000000000000000000000015020008B1
:10003000BF05000800000000B50200081903000811
:100040008F7601088F7601088F7601088F76010878
:100050008F7601088F7601088F7601088F76010868
:100060008F7601085D0700088F7601088F760108FA
:100070008F7601088F7601088F7601088F76010848
:100080008F7601088F7601088F7601088F76010838
:100090008F7601088F7601088F7601088F76010828
:1000A0008F7601088F7601088F7601088F76010818
:1000B0008F7601088F7601088F7601088F76010808
:1000C0008F7601088F7601088F7601088F760108F8
:1000D0008F7601088F7601088F760108E305000806
:1000E000150700088F7601088F7601088F760108C2
:1000F0008F7601088F7601088F7601088F760108C8
:100100008F7601088F7601088F7601088F760108B7
:100110008F7601088F7601088F7601088F760108A7
:100120008F7601088F7601088F7601088F76010897
:100130008F760108C10500088F7601088F760108C7
:100140008F7601088F7601088F7601088F76010877
:100150008F7601088F7601088F7601088F76010867
:100160008F7601088F7601088F7601088F76010857
:100170008F7601088F7601088F7601088F76010847
:100180008F7601088F760108DFF81CD017F024FD68
:1001900010F063F80021034810F02BF910F071F80B
:1001A000FEE7000034010020B039012080F3098807
:1001B0007047EFF309807047684680F30988044868
:1001C0000078C00714BF0220032080F31488704712
:1001D00084820108DFF818C0EFF305831B0618BFFF
:1001E0006047EFF31483DB0708BF604700DF704709
:1001F0006D1A0108DFF818C0EFF305831B0618BF5E
:100200006047EFF31483DB0708BF604700DF7047E8
:10021000B31A0108EFF30980816911F8021C99BB38
:1002200090E80F1010B5E047BDE81040EFF3098CDF
:100230008CE807001C4B93E80600914208BF70470A
:1002400081B11EF0100F06BF2CED108A0120002096
:1002500081F825002CE9F00FC1F828C00CB412F089
:100260000BF80CBC1A60D2F828C0BCE8F00F92F86A
:10027000250000281ABFBCEC108A6FF0120E6FF038
:10028000020E8CF30988704710B5084A1268914233
:1002900009D8074C54F8214090E80F10A047EFF31D
:1002A000098C8CE80F0010BD5C010020547C010813
:1002B000547C010810B511F052FFBDE81040154BF9
:1002C00093E80600914208BF7047EFF3098C1EF0D7
:1002D000100F06BF2CED108A0120002081F82500A8
:1002E0002CE9F00FC1F828C00CB411F0C5FF0CBC0C
:1002F0001A60D2F828C0BCE8F00F92F82500002858
:100300001ABFBCEC108A6FF0120E6FF0020E8CF365
:10031000098870475C01002010B511F091FFCCE70F
:1003200010B511F08CFF11F08BFFC6E705E000203F
:1003300013F0C5FAFA2010F0CBF8F8E710B500205A
:1003400013F08EFA012013F08BFA10BD08B564206B
:1003500010F0BEF8FFF7F2FF00F030FB00F030FACB
:1003600003F061FC00F069FF01F00DFA01F0F3FB0E
:100370004FF0FF304FF480630022AFF24F01009046
:1003800004A00FF008FD0FF07CFF02E0C82010F081
:100390009FF8FBE74A4F4231000000000CB50020F7
:1003A000019000907648006840F4803074490860FD
:1003B00000BF7348006800F4003000900198401CB2
:1003C0000190009818B90198B0F5A06FF1D16C4870
:1003D000006800F4003010B10120009001E000201E
:1003E00000900098012846D165484030006840F0F0
:1003F00080506349403108606248006840F48040A2
:10040000604908605E48083000685D49083108604E
:100410000846006840F4004008600846006840F460
:10042000A05008605848091F0860081F006840F085
:100430008070091F086000BF5148006800F000701C
:100440000028F9D040F20560504908604C48083057
:10045000006820F003004A49083108600846006837
:1004600040F00200086000BF45480830006800F016
:100470000C000828F8D10CBD10B54548006840F4C0
:100480007000434908603E48006840F001003C4964
:10049000086000203A4908310860394800683D4941
:1004A0000840374908603C48091D0860081F00687B
:1004B00020F48020091F0860002031490C310860B9
:1004C000FFF76CFF4FF0006031498039086010BDC4
:1004D00070B500200022022300240221284D083597
:1004E0002D6805F00C0020B1042806D0082834D16E
:1004F00007E02A4D2A4E356033E02A4D284E3560FC
:100500002FE01F4D2D1D2D68C5F380541C4D2D1D52
:100510002D6805F03F0154B1224DB5FBF1F5184EA1
:10052000361D3668C6F3881605FB06F209E01B4D3A
:10053000B5FBF1F5124E361D3668C6F3881605FB7D
:1005400006F20F4D2D1D2D68C5F301456D1C6B0086
:10055000B2FBF3F5124E356003E0104D104E3560DE
:1005600000BF00BF064D08352D68C5F303150E4EBC
:10057000705D0B4D2D68C540094E356070BD0000A3
:10058000003802400070004008544007003C024020
:1005900088ED00E0FFFFF6FE103000240024F40098
:1005A0000000002000127A0004000020704700BF05
:1005B000FEE700BFFEE700BFFEE700BFFEE77047B3
:1005C00010B5402016F021FE012802D170480FF02E
:1005D00050FB402016F03DFE4FF4803016F039FEFF
:1005E00010BD70B56B480088C4B26B480068B0F5A8
:1005F000FA7F19D26948B0F8B401802803DB7F2064
:100600006649A1F8B4016549B1F8B401411C634BD6
:10061000A3F8B4111946B1F8B21101EBC10103EB13
:10062000011110310C5471E05C48B0F8B201401C6B
:10063000032190FBF1F201FB12005849B1F8B0110F
:1006400088421CD000205549A1F8B4010846B0F8F2
:10065000B201401C032190FBF1F201FB12004F4953
:10066000A1F8B2010846B0F8B20100EBC00001EBFE
:10067000001000F1080528460FF007F806E047488B
:10068000B0F8B601401C4549A1F8B60144480068DD
:1006900044490988401A00B24049B1F8B21101EB4F
:1006A000C1013E4A02EB011188803F4800683F4982
:1006B0000988401A00B21146B1F8B21101EBC1012C
:1006C00002EB0111C8801046B0F8B401802803DBAA
:1006D0007F201146A1F8B4013049B1F8B401411CA2
:1006E0002E4BA3F8B4111946B1F8B21101EBC101B8
:1006F00003EB011110310C542948006800B229495C
:1007000008802948006800B2284908800020224952
:10071000086070BD10B54FF4004013F0AFFF012822
:1007200003D1C00313F0A6FF17E04FF4804013F08D
:10073000A5FF012811D1800313F0B1FF1C484078B8
:1007400010B901201A49487000201A4908601A4956
:1007500008601A4908801249086010BD10B50820C9
:1007600013F09DFF00200E490860090748621048F9
:10077000407810B901200E49487000200D490860EA
:100780000D4908600D4908800549086010BD00004A
:10079000E09F00200448004024140040440600204C
:1007A000240400401400002024080040160000200B
:1007B00024000020280000202C000020320000200F
:1007C00000B587B0002108460CF01BFB13480690CB
:1007D0006FF07F40059012480490124812490022A1
:1007E00004ABCDE90021029005AA06A90F4809F043
:1007F0001EFC0E4809F065FC0D48006811280AD15E
:100800000A4890F82D0040F01000084981F82D00AA
:10081000084609F0CBFC07B000BD0000C0A8010AE3
:10082000C0A801013FCC000887F90008EC010020B6
:100830001800002010B501214FF0F05014F0F0FC2A
:1008400015F0C0FD16F0D0FC00BF16F0D4FC012856
:10085000FBD0FC4815F0C1FD0120FA4908600020DA
:10086000C8614FF4007088620020C86288634864E1
:10087000C86410200865002048654FF48060486215
:100880000020C1F880004FF00070C1F88400001112
:10089000C1F88C000020C1F89400C1F89800042031
:1008A000C1F8A000C005C1F8A4004012C1F8A8001A
:1008B0008001C1F8AC004012C1F8B0004000C1F89E
:1008C000B8000121DF4815F042FEDF490860012130
:1008D000DE4816F0A7FC10BD08B54FF4407013F0C9
:1008E00015FC3D208DF8000006208DF80100002049
:1008F0008DF8020001208DF80300684613F00BFC10
:1009000008BD1CB50121072014F08AFC01218803D1
:1009100014F0CAFC012014F0F0FD862000900320A2
:100920008DF8050002208DF8040000208DF80600E7
:100930008DF807006946C64814F02CFA0B220121F5
:10094000C34814F0B2FA0B220221C14814F0ADFAE8
:100950000B220721BE4814F0A8FA4FF46050009013
:100960006946BC4814F016FA0B220A21B94814F063
:100970009CFA0B221146B74814F097FA0B220C216F
:10098000B44814F092FA0B220D21B24814F08DFAFB
:10099000322000906946B04814F0FCF90B22012186
:1009A000AD4814F082FA0B220421AB4814F07DFA12
:1009B0000B220521A84814F078FA1CBD10B5FFF7EA
:1009C000A0FFFFF789FFFFF735FF1021012015F089
:1009D0008DFD00F0010028B19B48006840F0100038
:1009E0009949086098480068D0B94FF4784012F0EF
:1009F0006BFA12F076FAC08800EB800084B297A1FF
:100A0000204612F03AFB12F06CFAC08800EB40006E
:100A10004004040C96A1204612F02FFB00BFFEE715
:100A200010BD70B5054600241121284615F05EFD65
:100A3000044644F0030422461121284615F026FD01
:100A400008B9002070BD1221284615F04FFD04465C
:100A500044F0200422461221284615F017FD08B95B
:100A60000020EFE70120EDE700B585B0012102206D
:100A700014F0D6FB0121880314F016FC00208DF839
:100A800010008DF813004FF48040039003A97148C3
:100A900014F080F90E21012014F00EFD4FF4804077
:100AA000019000208DF808000C208DF8090001202D
:100AB0008DF80A0001A813F07BFD28208DF80000B6
:100AC00001208DF801008DF80300684613F023FB28
:100AD00005B000BD10B504461221204615F006FDF4
:100AE00000F4005080B11021204615F0FFFC00F00A
:100AF000010018B1634809F07CFB05E00120624960
:100B00000870604809F09EFB10BDF0B585B0064640
:100B100000200490009012F0E4F9C0888004070CD3
:100B2000384612F046FA12F0DCF9C08800EB80007B
:100B300087B2384612F03DFA12F0D3F9C08800EBC4
:100B400040004004070C384612F033FA12F0C9F99D
:100B5000C088C0EBC00087B2384612F02AFA12F003
:100B6000C0F9C088C004070C384612F022FA12F00F
:100B7000B8F9C08800EBC00087B2384612F019FA05
:100B800096F82D00C0F30010002859D02D480068B9
:100B900000283FD0002004904FF480520021012013
:100BA00015F074FC00BF0498401C04900121084615
:100BB00015F09CFC00F0200018B9344904988842D4
:100BC000F1D3002004901021012015F08FFC044681
:100BD00004F0040020B14FF400601A49086202E0FA
:100BE00000201849086204F0020018B100201549DD
:100BF000486103E04FF48040124948612448056889
:100C0000104840690F49096A0843054320480560B8
:100C10000568056015F08AFE1E4803906FF07F405E
:100C200002901D48019001AB02AA03A9154809F0E2
:100C3000EAF9144809F0BAFA00201349087032E0C2
:100C40002CE00000240200201800002040000100D9
:100C5000000002400004024000080240202020451D
:100C6000746865726E657420496E69742020200076
:100C70002020202020206661696C656420202020CF
:100C800020200000EC0100201C000020FFFF0400D9
:100C900000800240C0A8010AC0A8010115F056FE5C
:100CA000024809F013FA05B0F0BD0000EC01002085
:100CB00010B50021FE480EF06FFF10BD10B5642284
:100CC0000021FB480EF077FF10BD70B504462546A5
:100CD00028460EF0DAFCF7488069E060F548C06904
:100CE000A06070BD0020F44981F8920281F8910261
:100CF00081F8900200BFF148007800B939E0EE4871
:100D000090F89202401C00F00300EB4991F8921217
:100D100088422DD0E84890F890020A280FD111F0AF
:100D20004BF90020E44981F89002084690F89202BD
:100D3000401C00F0030081F8920211F080F9DE48B7
:100D400090F8901290F89002401CDB4A82F89002D2
:100D5000104690F8920200EBC00202EB4010D64A17
:100D600002EB8000001D00EB01142046FFF7ADFFF1
:100D700000BF64200FF0ACFBBDE72DE9F04705464E
:100D8000894616461F46DDF820802C46CCA016F07A
:100D900063FF04F128000EF0BEFF6178481CC11704
:100DA00000EB91718910A0EB8101227891420CD067
:100DB0006178201D40F821606078401C00F003003D
:100DC000607038682062A4F8248004F128000EF0D6
:100DD000AEFF0021B6480EF0DFFEBDE8F08738B563
:100DE00005460C46002304226946284608F0C8FE42
:100DF0009DF803209DF80210B8A016F02DFF9DF875
:100E00000200302804D03E2803D03F2827D11DE01F
:100E100000BF9DF802003E2808D10020B8490870A4
:100E200001204870A5490870A08CE084FF208DF84F
:100E3000030004226946284608F0EBFEA38C04F167
:100E40002002294660690EF064FB09E00020AC49ED
:100E500048700120087003209849087000E000BF26
:100E600000BF38BD2DE9F04F93B0834600208DF8C8
:100E70000D008DF80C00099042F21270ADF82800B8
:100E80000EF0D8FB08900DA80EF031FF00F0FF091E
:100E9000B9F1000F05D09BA016F0DEFE13B0BDE83F
:100EA000F08FA1480EF023FF00F0FF09B9F1000F09
:100EB00003D09EA016F0D0FEF0E7012090494870C4
:100EC0000870089818B9A1A016F0C6FEE6E703AAB4
:100ED000AFF2591108980EF08CFBBDF82820A349F9
:100EE00008980EF047FA0122A421002008F031FCF6
:100EF00005464FF0FF304FF480630022AFF21B2114
:100F000000909BA00EF047FF00BF1DE00DA80EF063
:100F100002FF9DF80C1004A850F821809DF80C10D9
:100F2000481CC11700EB91718910A0EB8101C9B277
:100F30008DF80C100DA80EF0FAFE03A94046FFF73D
:100F40004EFF404608F0C0FB9DF80C009DF80D10C8
:100F50008842DBD16A480078F0BB58480078012805
:100F600041D1554890F89102534991F89212884224
:100F700038D0514890F8910200EBC00101EB4010CD
:100F80004D4901EB80048048008820807E4800881D
:100F9000401C7D4908808020A0700120E0704648F8
:100FA00090F8910200EBC00101EB4010424901EBC7
:100FB00080006860BDF832300BAA294608980EF010
:100FC000A8FA59480EF0A7FE3B4890F89102401C41
:100FD00000F00300384900E005E081F89102524832
:100FE0000EF0A5FE23E1464840780028FAD13348A8
:100FF00000780328F6D137E02F4890F8910200EBF3
:10100000C00101EB40102C4901EB80075E480088CD
:1010100038805D480088401C5B4908808020B8709B
:101020000120F870244890F8910200EBC00101EB18
:101030004010214901EB80006860BDF832300BAAF6
:10104000294608980EF065FA37480EF064FE1A48F3
:1010500090F89102401C00F00300174981F89102BA
:1010600031480EF064FE00BF134890F89102124917
:1010700091F892128842BFD10F4890F8910200EB8C
:10108000C00101EB40100C4901EB80043E48008890
:1010900020803D480088401C3B4908808020A0708B
:1010A0000220E070044890F890020001011D6DE0FC
:1010B0008C05002060090020E002002020000020B4
:1010C00074696D65746573745F63616C6C62616390
:1010D0006B2063616C6C210A00000000686561642C
:1010E0002E6D73675F747970653A25642C6865614D
:1010F000642E6D73675F726573703A25640A000031
:101100001E0000206E6574506174682E62756671F1
:1011100075655F6D757465782063726561746520AF
:101120006572726F722E0A007405002054494D4595
:101130005F544553542E6D757465782063726561F4
:101140007465206572726F722E0A000074696D6595
:101150005F74687265616420616C6C6F63206D659B
:101160006D70206661696C210A0000009C81010895
:1011700064617461636F6C6C656374696F6E5F74D6
:1011800068726561640000002200002003220020D4
:1011900008F0DFFA8246324890F890020001021D02
:1011A0002F4890F8910200EBC00303EB40102C4B4A
:1011B00003EB8001504608F02CFDBDF832300BAA3D
:1011C000514608980EF0A5F9504608F07DFA002027
:1011D000234981F8900281F8920281F8910201205E
:1011E00020490870487001220421002008F0B1FA5B
:1011F00006461D480088ADF808001B480088401CC2
:10120000194908803F208DF80A00FF208DF80B0057
:1012100002A87060BDF830300BAA314608980EF075
:1012200078F9304608F050FA00201049087064221E
:1012300000210F480EF0BFFC67E608B508210C48F6
:101240000EF070FC10B10BA016F006FD0120C302D9
:101250000022AFF2EF3100900EA00EF09CFD08BD11
:10126000E00200201E0000202200002020000020BC
:101270008C050020637265617465207265635F711F
:10128000756575655F74696D65206661696C210AB5
:101290000000000074696D655F74687265616400C8
:1012A00010B5002807DA0A07140EFB4A00F00F03F6
:1012B0001B1FD45403E00A07130EF84A135410BD41
:1012C00000B587B00121022013F0AAFF01210820F8
:1012D00013F0A6FF0121084613F0D5FF01210220DB
:1012E00013F0D1FF0121042013F0CDFF01210820CC
:1012F00013F0C9FF0121880313F0D6FF01208DF8F8
:10130000190002208DF8180000208DF81A00012025
:101310008DF81B003020059005A9E14813F03AFD37
:101320004FF44050059005A9DE4813F033FD00202E
:101330008DF818008DF81B000820059005A9D848E5
:1013400013F028FD4FF48040059005A9D54813F00F
:1013500021FD02220421D24813F0A7FD022205211B
:10136000CF4813F0A2FD02220C21CE4813F09DFDC0
:1013700002220D21CB4813F098FD0321012014F027
:101380009BF80E21032014F097F80020ADF8080018
:101390004FF6FF7003900020ADF81000ADF80A0082
:1013A0008DF8120002A94FF0804014F058FA02A9FB
:1013B000BD4814F054FA02A9BC4814F050FA02A92E
:1013C000BB4814F04CFA2021B74814F0A1FF80214B
:1013D000B54814F0AFFF2021B44814F099FF8021E4
:1013E000B24814F0A7FF2021480614F024FF07217B
:1013F0004FF0804014F095FF2021480614F024FFA0
:101400002021AB4814F017FF0721A94814F089FFE9
:101410002021A74814F018FF00231A460321A248F0
:1014200014F091FF00231A460321A04814F08BFF0B
:101430009D481830008840F010009B491831088002
:101440000846008840F4805008809848183000888A
:1014500040F030009549183108800846008840F473
:101460004050088000208DF8040008208DF8050009
:1014700001208DF8060008200090684613F098F8C7
:101480004FF480400090684613F092F8082013F063
:10149000F1F84FF4804013F0EDF802210920FFF736
:1014A000FFFE03212820FFF7FBFE092000F080F952
:1014B000282000F07DF90121880714F059FA012154
:1014C000794814F055FA0121784814F051FA0121B5
:1014D000774814F04DFA00204FF08041486272497D
:1014E0002431086071492431086071492431086051
:1014F00007B000BD10B500216E480EF04DFB10BDC9
:1015000010B50A2200216B480EF055FB10BD10B536
:10151000044620460EF0B9F810BD02690A6042691F
:101520004A6070472DE9F0470546894616461F4632
:10153000DDF820802C462079401C00F0070021684F
:10154000884217D030891E2803DCA4F82E80386822
:10155000606304F10800616840F8216030300EF0EB
:10156000DAFB2079401C00F00700606004F13800CD
:101570000EF0DDFBFFF7BEFFBDE8F08730B5024699
:101580000B4610893C2830DD506816301469046021
:10159000001D54690460444C24342468464D2D8851
:1015A000641B21B2404C2434246824B2424D2C8068
:1015B000424C24680C44414D2C60414C247834B991
:1015C00001243F4D2C703D4C24683E4D2C605068EA
:1015D00034303C4C24680460001D384C246804609E
:1015E000364C2468374D2C6000BF30BDF8B5064638
:1015F0000C46002304226946304608F0C1FA9DF8E3
:101600000250082D03DAFF208DF8030018E03F2D6B
:1016100006D1FF208DF8030001202B4908700BE054
:101620001F2D06D1FF208DF80300002026490870E9
:1016300002E06A208DF80300072500202049087089
:1016400004226946304608F0E4FAE38D04F13402DE
:101650003146A06A0DF05DFFF8BD70B594B0064646
:10166000FFF72EFE0DF0E6FF0A900020019000909B
:1016700041F64A70ADF82E00ADF82C0013480D90DD
:1016800013480C900EA80EF032FB054695B311A03E
:1016900016F0E2FA14B070BD18ED00E000E400E0CE
:1016A00000040240000C024000040040000800401A
:1016B000000C0040E8050020320000202C00002033
:1016C000300000202800002024000020C0A8016471
:1016D000C0A8010A637265617465206E65747061EB
:1016E00074682E6275666D75746578206661696CC4
:1016F00021000000FFE70A9820B933A016F0ACFAE9
:1017000014B070BD6A46AFF2E3110A980DF071FF94
:1017100041F64A7232490A980DF02CFE00BF2BE0C8
:1017200002A8009950F8214020891E2804DA694651
:101730002046FFF75BFF11E020891E280EDD694679
:101740002046FFF71BFF27484078012806D1BDF847
:101750002E300DAA21460A980DF0DBFE204607F038
:10176000B3FF0EA80EF0D7FA0098401C00F0070057
:1017700000900EA80EF0DBFADDE900018842CFD11F
:10178000FFF7BEFECBE708B50A2117480EF0CAF9ED
:1017900018B116A016F060FA08BD0120C30200229D
:1017A000AFF2491100901AA00EF0F5FA00BFF3E76E
:1017B00000F01F02012191404209920002F1E02253
:1017C000C2F800117047000063726561746520758E
:1017D00064705F706362206661696C2100000000C4
:1017E0009C81010824000020E805002063726561E7
:1017F0007465206C617365725265636569766551C5
:101800007565206973206661696C2121210A0000D9
:101810006C61736572506F696E74436C6F7564466A
:101820006F72776172645F74687265616400000052
:1018300010B50021D2480EF0AFF910BD10B50A2244
:101840000021CF480EF0B7F910BD024600207047C6
:1018500002460020704770B504460D4600F004FBB8
:101860004FF40061C74813F011FB002070BD70B544
:1018700004460D4600F0EAFA002070BD00BFBFF339
:101880004F8FC148006800F4E060C0490843001D64
:10189000BD490860BFF34F8F00BF00BFFEE770B5C2
:1018A00005460C4604230822B949204608F068F989
:1018B000B74890ED000ADFEDB70AB4EEE00AF1EEAA
:1018C00010FA06DA90ED000AB5EEC00AF1EE10FA51
:1018D00004D8B3EE0E0AAE4880ED000AAC4890ED95
:1018E000010ADFEDAD0AB4EEE00AF1EE10FA06DA15
:1018F00090ED010AB5EEC00AF1EE10FA04D89FEDA2
:10190000A70AA34880ED010AA148D0ED000AB0EE75
:10191000600A00F09AFC002070BD0246002070476B
:1019200000B58BB00121084613F0BEFC012108462A
:1019300013F076FC0121082013F072FC01208DF8D1
:1019400029008DF8280000208DF82A0002208DF84B
:101950002B008002099009A98A4813F01BFA4FF462
:101960000061884813F094FA02208DF82800C00125
:10197000099009A98A4813F00DFA01220821884824
:1019800013F093FA40F6EF2007900020ADF818000E
:10199000ADF82000ADF81A008DF8220006A98148A4
:1019A00013F05DFF6020ADF804000120ADF80600E3
:1019B00040F2775003900220ADF810000020ADF8FF
:1019C0001200ADF814004FF40070ADF8160001A934
:1019D000744813F0D9FF0821724814F062F901210C
:1019E000704813F0C5FF01216E4814F0B2FB0BB034
:1019F00000BD2DE9F0470546894616461F46DDF82D
:101A000020802C466168481CC11700EB5171C91039
:101A1000A0EBC101226891421BD004F1080061686B
:101A200040F8216038686063A4F82E8004F1380023
:101A30000EF071F96168481CC11700EB5171C910B3
:101A4000A0EBC101616004F138000EF070F9FFF7FE
:101A5000EFFEBDE8F087F0B595B00746FFF760FFF1
:101A6000B0EE000A00F0F1FB0020029001900DF0B2
:101A7000E1FD0B9044F62060ADF83000ADF8320087
:101A800049480E900FA80EF032F906460B9820B97F
:101A900046A016F0E1F815B0F0BD1EB14AA016F050
:101AA000DBF8F8E701AAAFF2B5010B980DF0A1FD44
:101AB00044F620624F490B980DF05CFC00BF43E0F8
:101AC00003A8019950F821400023042269462046CA
:101AD00008F056F89DF80250082D03DAFF208DF823
:101AE00003000DE03F2D07D1FF208DF803000120FA
:101AF00041494870072503E06A208DF80300072557
:101B00003E4850F82520214601A890470422694606
:101B1000204608F07EF8BDF832300EAA21460B9818
:101B20000DF0F7FC204607F0CFFD0FA80EF0F3F8FC
:101B30000199481CC11700EB5171C910A0EBC101FC
:101B400001910FA80EF0F3F8DDE901018842B7D149
:101B5000FFF774FEB3E708B50A2109480DF0E2FF6C
:101B600010B127A016F078F800204FF40063024669
:101B7000AFF21D1100902AA00EF00DF908BD000073
:101B800058080020000C02400CED00E00000FA05AF
:101B900034000020AE073443000048440000C8422F
:101BA0000000024000000140C0A801656372656149
:101BB00074206D6F746F722075647070636220663C
:101BC00061696C210A0000006E6577206D6F746F8B
:101BD00072206E6574706174682E6275666D7574BE
:101BE000657820637265617465206661696C210A9D
:101BF000000000009C810108B40800203C00002087
:101C0000637465617465206D6F746F724374726C78
:101C10005175657565206661696C210A00000000D8
:101C20006D6F746F724374726C5F74687265616417
:101C30000000000010B5002807DA0A07140EFE4A5B
:101C400000F00F031B1FD45403E00A07130EFB4AD6
:101C5000135410BD00B587B00121084613F0E0FA17
:101C60000121102013F020FB01208DF81900022023
:101C70008DF8180000208DF81A0001208DF81B0047
:101C80004FF4C060059005A9ED4813F083F80722D2
:101C90000921EB4813F009F907220A21E84813F05B
:101CA00004F94FF4E12001900020ADF80800ADF8F0
:101CB0000A00ADF80C000C20ADF80E000020ADF8C5
:101CC000100001A9DF4812F061F82021DD4812F070
:101CD000CDF9012240F22551DA4812F095F904219C
:101CE0002520FFF7A7FF252000F015FB0121D5488F
:101CF00012F0D4F807B000BD00B587B0012108206C
:101D000013F08EFA0121880413F0BDFA01208DF83A
:101D1000190002208DF8180000208DF81A0001200B
:101D20008DF81B004FF44070059005A9C64813F0CC
:101D300031F807220821C44813F0B7F80722092117
:101D4000C14813F0B2F84FF4E13001900020ADF833
:101D50000800ADF80A00ADF80C000C20ADF80E003C
:101D60000020ADF8100001A9B84812F00FF82021AA
:101D7000B64812F07BF9012240F22551B34812F027
:101D800043F905212720FFF755FF272000F0C3FA6C
:101D90000121AE4812F082F807B000BD0EB5012156
:101DA000202013F070FA4FF6FF700190A720ADF8D5
:101DB00000000020ADF80800ADF802008DF80A0020
:101DC0006946A34813F04BFD0121A14813F0D0FD53
:101DD0000EBD0EB50121102013F055FA4FF6FF701D
:101DE00001900020ADF80000ADF80800ADF8020049
:101DF0008DF80A006946974813F031FD0121954896
:101E000013F0B6FD0EBD00EE100AB8EE400ADFED8D
:101E1000920A80EE201ABCEEC10A10EE100A8D4A1A
:101E2000516A00BF8B4A526A521A8242FAD37047F3
:101E300000B5034605E08948FFF7E5FF8748FFF74F
:101E4000E2FF1800A3F10103F5D100BD844800882A
:101E5000C0F30E0082494439A1F844009FED810A85
:101E6000814880ED000A70477D48008840F40040BA
:101E70007B494439A1F844009FED7A0A7A4880ED05
:101E8000000A704710B52DED0C8BB0EE408A9FED27
:101E9000770AF0EE409A9FED750AB0EE40AA9FEDEA
:101EA000730AF0EE40AA9FED710AB0EE40DA9FEDA2
:101EB0006F0AF0EE408A6C4890ED000AB0EE409A4E
:101EC000B4EEC89AF1EE10FA02D8BDEC0C8B10BD3E
:101ED000B5EE000AB4EEC08AF1EE10FA03D2B5EE08
:101EE000000AB0EE408A38EE090AF0EE000A80EEF1
:101EF000201AB0EE41AA3AEE480AF0EE000A20EEAF
:101F0000200ADFED5B0A80EE201A11EE104A20460F
:101F100015F0FEFC41EC1C0BB0EE4C0AF0EE6C0A26
:101F200015F0AAFEB0EE40BAF0EE60BA51EC1B0B11
:101F300015F032FD0AEE900AF0EE000A80EE880AF3
:101F4000F6EE000A30EE200AB0EE40DA2CE038EE71
:101F50008D0AF0EE408A9FED460A28EE800A60EE78
:101F6000280AB0EE001A80EE810A39EE400AF0EE3F
:101F7000409A9FED400A29EE800ADFED3F0A20EEED
:101F8000200AF7EE000A60EE200A9FED3C1A81EE6F
:101F9000200AF7EE000A30EE600ABCEEC00A10EE2E
:101FA000100A2F4944390885F4EEEA8AF1EE10FA56
:101FB000CDD338E038EE8D0AF0EE408A9FED2C0A42
:101FC00028EE800A60EE280AB0EE001A80EE810A40
:101FD000DFED2B0A68EEA00A00EEEA0AF0EE000A36
:101FE00000EECA0AF0EE080A00EE890AF0EE409A06
:101FF0009FED200A29EE800ADFED1F0A20EE200A5D
:10200000F7EE000A20EE200ADFED1C0A80EE801AAF
:10201000B7EE000A31EE400ABCEEC00A10EE100A1C
:102020000F494439088539EEC80ADFED0E0AB4EECF
:10203000E00AF1EE10FA25E018ED00E000E400E01F
:102040000000024000100140000C02400048004027
:102050000014004000100040E8793E4120A1070034
:1020600044000140CDCCCC3D6400002000000000C5
:10207000ACC5273700002F4500C82F48263416501E
:10208000ACC5A73796DCA94880ED008A00BF1CE7E5
:1020900010B52DED0C8BF0EE408A1FED0C0AF0EE22
:1020A000409A1FED0E0AB0EE40AA1FED100AF0EEA6
:1020B00040AA1FED120AB0EE40DA1FED140AB0EE8E
:1020C000408A9A4890ED000AB0EE409AB4EEE89A41
:1020D000F1EE10FA02DBBDEC0C8B10BD9FED940A03
:1020E000F4EEC08AF1EE10FA03DD9FED910AF0EEF6
:1020F000408A38EE890AF0EE000A80EE201AB0EE2F
:1021000041AA3AEE490AF0EE000A20EE200A5FEDFD
:10211000280A80EE201A11EE104A204615F0F8FB2E
:1021200041EC1C0BB0EE4C0AF0EE6C0A15F0A4FD6D
:10213000B0EE40BAF0EE60BA51EC1B0B15F02CFC7F
:102140000AEE900AF0EE000A80EE890AF6EE000A26
:1021500030EE200AB0EE40DA2BE038EE0D0AB0EE99
:10216000408A1FED3D0A28EE000A60EE080AB0EE34
:10217000001A80EE810A30EE090AF0EE409A1FED57
:10218000430A29EE800A5FED440A20EE200AF7EEAA
:10219000000A60EE200A1FED471A81EE200AF7EED2
:1021A000000A30EE600ABCEEC00A10EE100A614967
:1021B0000885B4EEEA8AF1EE10FACED337E038EEB5
:1021C0000D0AB0EE408A1FED560A28EE000A60EEB6
:1021D000080AB0EE001A80EE810A5FED570A68EE39
:1021E000200A10EEAA0AF0EE000A00EECA0AF0EE8B
:1021F000080A00EE890AF0EE409A1FED620A29EE05
:10220000800A5FED630A20EE200AF7EE000A20EE56
:10221000200A5FED660A80EE801AB7EE000A31EE02
:10222000400ABCEEC00A10EE100A4249088538EE9A
:10223000E90A5FED740AB4EEE00AF1EE10FABEDCD2
:102240003A48C0ED008A00BF45E710B52DED068B7A
:10225000B0EE408A18EE100A15F05AFB41EC1A0B4A
:102260009FED350B53EC102B15F0C2FA41EC190B16
:1022700015F092FB08EE100A2C4890ED000AB4EE1F
:10228000C80AF1EE10FA04D2B0EE480AFFF700FFD8
:1022900003E0B0EE480AFFF7F5FDBDEC068B10BD7C
:1022A0001FB503200246264B19684FF6FF0319405D
:1022B000244B0B4343EA0221214B196000BF042049
:1022C00011F076FF684612F016FF64210198B0FB0A
:1022D000F1F4B4F1807F00D311E024F07F40401E80
:1022E0004FF0E02148610F214FF0FF30FFF7A2FCD3
:1022F00000204FF0E02188610720086100BF07211E
:102300004FF0FF30FFF796FC1FBD10B5FFF761FDE2
:10231000FFF744FD10BD00F01F020121914042096A
:10232000920002F1E022C2F8001170476400002020
:1023300000003443000001409A9999999999B93F56
:102340000CED00E00000FA052DE9F04180460F4653
:10235000D8E9005600210846691A76EB000006DA33
:102360000023D5EB030563EB06065C1E00E00124A9
:10237000280C40EA064536145A4A002328463146BE
:1023800015F0BBF9A0FB04013860564A002328462B
:10239000314615F0B2F9A2FB04017860BDE8F08186
:1023A000026802F000421AB9426802F0004202B12B
:1023B000704702680A6042688A6000228A8000BF13
:1023C000F6E76FF000430A689A4204D20A68026096
:1023D0008A68426000E0704700BFFCE7414A4168FC
:1023E00091FBF2F10268114401603E4A416891FBA1
:1023F000F2F1521251434268A2EB4121416001685F
:1024000000290ADD4168002907DA0168491E0160D8
:10241000344A4168114441600CE00168002909DA3E
:102420004168002906DD0168491C01602D4A4168A8
:10243000891A4160704730B503460C46154620683E
:10244000296808441860606869680844586018463C
:10245000FFF7C4FF30BD30B503460C461546206873
:102460002968401A186060686968401A5860184600
:10247000FFF7B4FF30BD00B50346186800EBD0711C
:102480004910A0EB4101184A51435A6802EB41211F
:102490005960186800EBD07149101960586800EB5A
:1024A000D071491059601846FFF798FF00BD0146EA
:1024B000002209B9501E7047B1F5803F01D3090CC5
:1024C0001032FF2901D9090A0832102901D309095C
:1024D000121D042901D38908921C022900D3521C21
:1024E0001046E8E700CA9A3B65CD1D0002780A70E5
:1024F00042784A7082788A70FF22CA70FE220A717E
:10250000C2784A7102798A714279CA71704710B5EE
:102510000346D3F8644401201870591C03F2394073
:10252000FFF7E4FF01205881E1785973A078187310
:10253000A188D981A0791874E0795874207A9874A8
:10254000607AD874D3F801009865D3F80500D8658F
:1025500001216020C15203216320C15400219966EA
:10256000596621786C20C15406216D20C1546178D0
:102570006E20C15494F832106F20C1540121702094
:10258000C15402217120C15400217820C152218EF2
:102590007A20C15203F58060D4E90812C0E9101214
:1025A000D4E90A12C0E91212618F40F25640C152BA
:1025B000A18F801CC152218F001FC152E18E801E4D
:1025C000C1523520015D40F25140C15494F83400AD
:1025D00083F85004A07B83F8600410BD70B50446F6
:1025E0000D4608222946204615F0F5F838B9B4F909
:1025F0000800B5F90810884201D1012070BD002003
:10260000FCE72DE9F04704460E4617464FF0000957
:10261000B4F97E50C84644E005EB450202EBC50222
:10262000606F00EBC20106F11800FFF7D7FF70B32F
:1026300005EB450101EBC501606F00EBC10040896E
:10264000401C00B205EB450202EBC502616F01EBD5
:10265000C20148814FF0010905EB450202EBC502BA
:10266000616F01EBC20101F130002822314615F003
:1026700087F805EB450202EBC502616F01EBC20171
:1026800001F10C002422394615F07AF80DE0FFE73D
:10269000B4F97810681C90FBF1F201FB120508F107
:1026A0000108B4F978004045B6DC00BFB9F1000F6D
:1026B00050D1B4F97810B4F97A00814205DA782063
:1026C000005B401C01B278200153B4F97C5005EB4B
:1026D000450101EBC501606F00EBC100B16901600C
:1026E000F1694160308C05EB450202EBC502616F78
:1026F00001EBC2010881002005EB450202EBC50297
:10270000616F01EBC201488105EB450202EBC50296
:10271000616F01EBC20101F130002822314615F052
:102720002FF805EB450202EBC502616F01EBC20118
:1027300001F10C002422394615F022F8B4F97C008E
:10274000401CB4F97A1090FBF1F201FB120001B2C7
:102750007C200153BDE8F087002181820022C26104
:10276000826142620262D0F801108162D0F80510E5
:10277000C1620286D0F80120C263D0F8052002644D
:10278000427B45210A54027B44210A54C2894621D6
:102790000A52027C80F84820427C80F84920D0F818
:1027A00064144989A0F84C1000224E210A544F218C
:1027B0000A5450210A5451210A5452210A545321D7
:1027C0000A54A02254210A54704770472DE9F04161
:1027D00004460D461646F08B401C00B2A08205F15F
:1027E000180104F12800FFF7F9FE07462FB9D4F8C5
:1027F0005C0440F40060C4F85C04A869A062E86965
:10280000E062298C2186D6F81510E163D6F81910FC
:102810002164717C84F84510317C44200155718A13
:10282000A4F84610B17B84F84810317D84F8491033
:10283000B089A4F84C00287AC0F380014E200155DD
:10284000287AC0F340014F200155287A00F001009A
:1028500080F0010080F0010150200155287AC0F37A
:10286000001151200155287AC0F340115220015522
:10287000287AC0F3C0015320015596F82010542047
:102880000155BDE8F08110B5137C8B73D2F801308F
:10289000C1F81530D2F80530C1F81930137B0B742C
:1028A000547B4C74D4894C82537C0B750023CB83AE
:1028B000D2F801308361D2F80530C36110BD2DE933
:1028C000F04707460C4690461D46DDF820A000263E
:1028D000082205F1150104F1150014F07CFF814672
:1028E000B9F1000F4FD0A07BA97B884202DD701E9A
:1028F000BDE8F087A87BA17B884201DD0120F7E7D6
:10290000207C297C884202DD4FF0FF30F0E7287CF4
:10291000217C884201DD0120EAE7617C687C8142FC
:1029200002DD4FF0FF30E3E7697C607C814201DD2E
:102930000120DDE7B4F91210B5F91200814202DD81
:102940004FF0FF30D4E7B5F91210B4F9120081420C
:1029500001DD0120CCE7207D297D884202DD4FF09A
:10296000FF30C5E7287D217D884201DD0120BFE7DA
:10297000B9F1000F02DD4FF0FF30B9E7B9F1000FF8
:1029800001DA0120B4E7B4F91E10B5F91E00401CAD
:10299000814202DD4FF0FF30AAE7B5F91E10B4F90D
:1029A0001E00401C814201DD0120A1E7B4F91E0098
:1029B000B5F91E10884213DD08220AF1580107F10B
:1029C000180014F008FF06B2002E02DD4FF0FF30B1
:1029D0008EE7002E02DA4FF0FF3089E7002087E70C
:1029E000B4F91E00B5F91E10884211DA08220AF166
:1029F000580108F1180014F0EEFE06B2002E01DDB9
:102A0000012075E7002E01DA012071E700206FE751
:102A1000082208F1180107F1180014F0DCFE06B2D4
:102A2000002E02DD4FF0FF3062E7002E01DA0120B8
:102A30005EE700205CE7F8B506460F4614467820AE
:102A4000005B20B96220005D032800D1F8BD22465A
:102A500004F1A80104F18000FFF715FF3B46324660
:102A600004F1A80104F180000094FFF728FF054657
:102A7000207B80280BDA012D04D12046FFF76CFE65
:102A80000520E3E72046FFF7A0FE0620DEE7012D44
:102A900004D12046FFF760FE0520D7E73A463146CD
:102AA0002046FFF793FE0820D0E7F8B5044601253D
:102AB00000262BE0009406EB460C0CEBC60C676F6F
:102AC00007EBCC0707F10C0306EB460C0CEBC60C2E
:102AD000676F07EBCC0707F1300205EB450C0CEBF9
:102AE000C50C676F07EBCC0707F10C0105EB450C34
:102AF0000CEBC50C676F07EBCC0707F13000FFF755
:102B0000DEFE002800DA2E46681C05B2B4F9780013
:102B1000A842CFDC7E20065306EB460303EBC60338
:102B2000626F02EBC30202F10C0106EB460303EBFA
:102B3000C603626F02EBC30202F130002246FFF7C8
:102B40007AFFF8BD70B504460D46012084F8C8032D
:102B50006220005DC01E062847D2DFE800F0383F43
:102B6000032E1011204601F0CDFD022002F047F99E
:102B7000042002F044F9002002F041F936E000BFE1
:102B8000072D01D0082D00D130E0032002F037F9E5
:102B90006F20005D012802D0022808D103E0012047
:102BA00002F02DF904E0002002F029F900E000BF56
:102BB00000BF204601F0A6FD18E0204601F0A2FD6E
:102BC000002002F01CF9032002F019F90EE0204663
:102BD00001F098FD032002F012F907E0204601F011
:102BE00091FD052002F00BF900E000BF00BF092DA8
:102BF00071D2DFE805F0050C1014323386C1FC00F9
:102C0000002162200155002084F8380418E10121D8
:102C10006220015514E102216220015510E16D206E
:102C2000025D94F96C00002805DD6C20035D4FF413
:102C30007A70984005E06C20005D43424FF47A7052
:102C4000184102FB00F1032002F0E8F803216220A2
:102C50000155032084F83804F2E000BF032163200B
:102C6000015594F96E00002805DD6E20025D4FF4D9
:102C70007A70904005E06E20005D42424FF47A7019
:102C800010410146022002F0C9F894F96C000028B6
:102C900005DD6C20025D4FF47A70904005E06C20F9
:102CA000005D42424FF47A7010410146042002F068
:102CB000B5F86F20005D012802D002281BD100E08A
:102CC0001AE094F97010002906DD70210A5D4FF4B6
:102CD0007A71914006E0B2E07021095D4A424FF4FA
:102CE0007A711141481C01F0D4FF0646314600209C
:102CF00002F094F800E000BF00BF052162200155FA
:102D00009EE06D20025D94F96C00002805DD6C20CA
:102D1000035D4FF47A70984005E06C20005D4342FB
:102D20004FF47A70184102FB00F1032002F076F8AC
:102D30006F20005D02281BD194F97010491C0029F6
:102D400007DD7021095D491C4FF47A7202FA01F126
:102D500006E07021095D491C4A424FF47A71114125
:102D6000084601F096FF06463146002002F056F86C
:102D700006216220015563E06D20025D94F96C002C
:102D8000002805DD6C20035D4FF47A70984005E063
:102D90006C20005D43424FF47A70184102FB00F151
:102DA000032002F03BF86F20005D012802D00228CA
:102DB0003BD11DE094F96310491C002907DD632114
:102DC000095D491C4FF47A7202FA01F106E06321B1
:102DD000095D491C4A424FF47A711141084601F0DD
:102DE00058FF06463146012002F018F81EE022E0A6
:102DF00094F97010491C002907DD7021095D491CF8
:102E00004FF47A7202FA01F106E07021095D491C63
:102E10004A424FF47A711141084601F03AFF0646E2
:102E20003146002001F0FAFF00E000BF00BF07219B
:102E30006220015504E008216220015500E000BF36
:102E400000BF70BD10B5044604F5737001F0A1FA1F
:102E5000214604F5737001F0FCFA08B9002010BD9A
:102E60002046FFF754FB01F0B8FF204601F04AFC72
:102E70002046FFF771FC04F1CC01204600F061FF11
:102E80000120ECE710B586B0044601A801F0E1FE90
:102E900003A901A8FFF784FA03AA04F1CC01204694
:102EA00001F011F901AB362204F1CC0104F5737085
:102EB00001F006FC20B901212046FFF743FE13E094
:102EC000B4F88003401C00B2A4F88003019858B104
:102ED00004F5896201A901A8FFF7ADFA04F5407075
:102EE000DDE90112C0E90E1206B010BD10B586B0C2
:102EF000044601A801F0ADFE03A901A8FFF750FAAE
:102F000003AA04F1CC01204600F0FFFF01AB2C2204
:102F100004F1CC0104F5737001F0AAFB20B9012182
:102F20002046FFF70FFE13E0B4F88203401C00B206
:102F3000A4F88203019858B104F5896201A901A897
:102F4000FFF779FA04F54070DDE90112C0E91812C3
:102F500006B010BD70B504466F20005D012802D098
:102F600002284DD128E06220005D082800D048E00A
:102F7000012001F064FFF0B194F96310491C0029AD
:102F800007DD6321095D491C4FF47A7202FA01F1F1
:102F900006E06321095D491C4A424FF47A711141F0
:102FA000084601F076FE05462946012001F036FF6D
:102FB0002046FFF79BFF24E0002001F040FFF0B126
:102FC00094F97010491C002907DD7021095D491C26
:102FD0004FF47A7202FA01F106E07021095D491C92
:102FE0004A424FF47A711141084601F052FE0546FB
:102FF0002946002001F012FF2046FFF743FF00E0C2
:1030000000BF00BF70BD704770477FB504460D46D6
:103010006F20005D012802D002284ED100E04DE073
:10302000D4F82403362804DA01212046FFF78AFD6C
:103030007FBD6220005D09283CD2DFE800F0050674
:10304000073B3B0A3B08090000BF00BF00BFEFE79A
:1030500000BF94F88D0300B92DE0B4F9A210B4F9C3
:103060008003401E814224D104F1A80104F5FC70C4
:1030700001F0FDF804F1A80102A8FFF7A2F904F598
:103080004070DDE90212C0E91212694604F19000B5
:10309000FFF75AF904F55E7269466846FFF7CBF907
:1030A00001226946204601F074FC002084F88D035B
:1030B00001E000BF00BF00BF00E000BF00BF00BFD5
:1030C000B6E72DE9FF4104460D4617466F20005D27
:1030D000012802D0022870D100E06FE0D4F8240368
:1030E000362805DA01212046FFF72CFDBDE8FF81D7
:1030F0006220005D09285CD2DFE800F005060709C0
:103100005B0A5B080B0000BF00BF00BF00BFEDE71C
:1031100000BF07B14EE004F1A80104F5FC7001F016
:103120004EF804F1B40104F15800FFF757FA0646CF
:10313000B4F98003401EB4F9A210884238D11EB3FE
:103140008720005DC0F34000F8B1012084F88D03B2
:1031500004F54070D5E90012C0E9141204F1A80189
:1031600002A8FFF72EF904F54070DDE90212C0E96C
:103170001012694604F19000FFF7E6F804F540707C
:10318000DDE90012C0E91E1212E0002084F88D0370
:1031900004F54070D5E90012C0E91412694604F143
:1031A0009000FFF7D1F800226946204601F0F1FBBC
:1031B00000E000BF00BF01E0FFE700BF00BF00BFAD
:1031C00094E72DE9FC4104460F46002500266F20B8
:1031D000005D012802D0022853D151E0D4F8240325
:1031E000362805DA01212046FFF7ACFCBDE8FC815A
:1031F0006220005D092841D2DFE800F005060708DB
:10320000404040090A0000BF00BF00BFEEE700BF1A
:1032100004F1A80104F5FC7000F03AFF04F19801F4
:1032200004F12800FFF7DAF9054604F1B40104F1CE
:103230005800FFF7D3F90646B4F98203401EB4F9EB
:10324000A210884219D1C6B1BDB104F1A80104F59C
:103250005A70FFF7B6F8694604F19000FFF774F86A
:103260006B4604F55A7204F55871204601F063FB71
:1032700094F8A5106320015500E000BF00BF01E0F5
:1032800000E000BF00BF00BFB0E7FEB504460D463A
:10329000164669462846FFF783F86A46314604F128
:1032A000CC0000F0A7FF362204F1CC0104F57370C6
:1032B00001F0F9F918B901212046FFF743FCFEBDE2
:1032C000FEB504460D46164669462846FFF768F8DF
:1032D0006A46314604F1CC0000F039FF2B46362215
:1032E00004F1CC0104F5737001F0EAF920B9012171
:1032F0002046FFF727FC07E0286828B104F589621B
:1033000029462846FFF797F8FEBD70B504460D46DE
:1033100016466F20005D012802D0022835D100E05A
:1033200034E0D4F82403362804DA01212046FFF7DC
:1033300009FC70BD6220005D092823D2DFE800F09F
:1033400005060709220C0A080B0000BF00BF00BFDA
:1033500000BFEEE700BF00BF06B114E004F1800239
:1033600029462046FFF7ACFF286850B18720005D52
:10337000C0F3400028B104F1800229462046FFF73F
:1033800084FF00E000BF00BF00E000BF00BF00BF3F
:10339000CFE7FEB504460D46164669462846FEF7B9
:1033A000FFFF6B46324604F1CC01204600F02CFEB4
:1033B000362204F1CC0104F5737001F067F918B9F5
:1033C00001212046FFF7BEFBFEBD70B504460D4649
:1033D00016466F20005D012802D0022825D123E087
:1033E000D4F824032C2804DA01212046FFF7AAFB95
:1033F00070BD6220005D092813D2DFE800F00506E9
:103400000709120B12080A0000BF00BF00BF00BF6F
:10341000EEE707E004F1800229462046FFF7B9FFF6
:1034200000E000BF00BF01E000E000BF00BF00BF40
:10343000DEE77FB504460D460026D4F824032C2889
:1034400004DA01212046FFF77DFB7FBD05B1FCE7D3
:103450006220005D09284BD2DFE800F0050607086E
:103460004A4546090A0000BF00BF00BF41E000BF57
:1034700004F1980104F12800FFF7B0F8064694F82B
:103480008C0300B935E006B933E0B4F98A13B4F916
:10349000A200814200D02CE004F1A80104F5FC70E8
:1034A00000F0A1FD002084F88C0304F1A80102A81B
:1034B000FEF787FF694604F19000FEF745FF04F52B
:1034C0005C7269466846FEF7B6FF6B4602AA04F5D1
:1034D0005671204601F0C0F9204601F091FA2046CD
:1034E000FFF738FD05E004E02046FFF733FD00E07C
:1034F00000BF00BF00BFA8E72DE9FF4104460E460C
:1035000015460027D4F824032C2805DA012120468B
:10351000FFF718FBBDE8FF816220005D092856D245
:10352000DFE800F005060755554E5108090000BFB9
:1035300000BF4DE000BF05B14AE004F1980104F17D
:103540002800FFF74BF8074607B941E004F5407043
:10355000D6E90012C0E91612694604F19000FEF7A0
:10356000F3FE8720005DC0F3400068B1012084F8BD
:103570008C03A220005BA4F88A0304F54070DDE907
:103580000012C0E91C121AE004F1A80104F5FC7055
:1035900000F0AAFC002084F88C0304F1A80102A822
:1035A000FEF70FFF6B4602AA04F55671204601F0A4
:1035B00053F9204601F024FA2046FFF7CBFC07E040
:1035C00005B905E004E02046FFF7C4FC00E000BFB9
:1035D00000BF00BF9EE770B504460D460026D4F834
:1035E0002403402804DA01212046FFF7ABFA70BD1E
:1035F00005B1FCE76220005D09285DD2DFE800F03C
:103600000506075F5E5D4408090000BF00BF6AE071
:1036100000BFD4F85C0440F04000C4F85C0404F13E
:10362000980104F12800FEF7D9FF064604F1A8012D
:1036300004F5FC7000F0F0FBF6B104F1A80204F10F
:1036400080012046FFF7C2F86D20025D94F96C00FE
:10365000002805DD6C20035D4FF47A70984005E08A
:103660006C20005D43424FF47A70184102FB00F178
:10367000032001F0D3FB06E004F1A80204F180016D
:103680002046FEF7BEFF2EE06D20025D94F96C002F
:10369000002805DD6C20035D4FF47A70984005E04A
:1036A0006C20005D43424FF47A70184102FB00F138
:1036B000032001F0B3FB00BF00BF00BF00BF04F157
:1036C000A80104F5FC7000F0A7FBD4F85C0440F0FE
:1036D0004000C4F85C0404F1A80204F18001204613
:1036E000FEF78FFF00BF00BF00BF80E77CB5044638
:1036F00000200090019094F8C80370B9002104F5EF
:10370000737000F01BFF0646002E04DA01212046EC
:10371000FFF718FA7CBD06B9FCE76A4604F5FC71B0
:1037200004F5737000F05FFFC4F82403D4F8240399
:10373000002804DA01212046FFF704FAEAE7D4F86A
:103740002403A8B96A4604F5FC7104F5737000F00F
:1037500055FFC4F82403D4F82403002804DA012117
:103760002046FFF7EFF9D5E7D4F8240300B9D1E7F5
:10377000012084F8C803D4F82403222804DA0121A4
:103780002046FFF7DFF9C5E704F1800104F5FC707E
:1037900000F08EFA8220015D7120005D814200D030
:1037A000B8E78620005DA17C884200D0B2E704F132
:1037B000980104F15800FEF711FF054645B900983D
:1037C000002805DD04F5886269466846FEF743FE79
:1037D0008120005D0E283ED2DFE800F00C171D2886
:1037E0003D3D3D3D12232E07383329462046FFF745
:1037F000F2FE31E02A4669462046FFF77DFE2BE0C7
:1038000029462046FFF715FE26E02A46694620464F
:10381000FFF7DBFD20E02A4669462046FFF775FDED
:103820001AE029462046FFF7CCFC15E02A466946F7
:103830002046FFF746FC0FE029462046FFF7E5FB50
:103840000AE029462046FFF7DFFB05E0294620462F
:10385000FFF7D9FB00E000BF00BF00BF5AE710B57B
:10386000044604F1CC01204600F08BFA402204F11A
:10387000CC0104F5737000F009FF20B90121204646
:10388000FFF760F905E0B4F88603401C00B2A4F825
:10389000860310BD3EB504460D4669462846FEF730
:1038A0007FFD6A4604F1CC01204600F06EFB2C221D
:1038B00004F1CC0104F5737000F0E8FE18B90121A1
:1038C0002046FFF73FF93EBD10B586B0044601A87B
:1038D00001F0BFF903A901A8FEF762FD03AA04F1F4
:1038E000CC01204600F0D2FA01AB2C2204F1CC012D
:1038F00004F5737000F0BCFE20B901212046FFF7EB
:1039000021F913E0B4F88403401C00B2A4F8840346
:10391000019858B1207848B104F5896201A901A83D
:10392000FEF789FD01A92046FFF7B4FF06B010BDE0
:1039300010B50446002084F8C8036220005DC01E54
:1039400006282DD2DFE800F003060708040500BFB3
:1039500000BF00BF00BF00BF94F85C04C0F380103C
:10396000E8B1D4F85C0420F04000C4F85C042046C0
:10397000FFF79BF884F8380494F83804052802D03F
:1039800006280AD100E000BFE07C10B9207BFF28A8
:1039900002D1032084F8380400E000BF00BF00E03B
:1039A00000BF00BF94F8380409287ED2DFE800F099
:1039B0007C7D7D717D051D7D28006220005D0428D1
:1039C00002D005280AD108E0052001F038FA18B124
:1039D00005212046FFF7B6F805E004E00421204663
:1039E000FFF7B0F800BF00BF60E06220005D94F810
:1039F0003814884203D006212046FFF7A3F855E08B
:103A00006220005D072802D008283AD11AE0B4F8F5
:103A10005C04C0F3802048B1D4F85C0420F48060DA
:103A2000C4F85C0408212046FFF78CF8B4F85C0465
:103A3000C0F3C02028B1D4F85C0420F40060C4F8BE
:103A40005C0423E0B4F85C04C0F3402048B1D4F82F
:103A50005C0420F40070C4F85C0407212046FFF7E2
:103A600071F8B4F85C04C0F3C02048B1D4F85C0429
:103A700020F40060C4F85C0407212046FFF762F8D8
:103A800004E007212046FFF75DF800BF00BF0DE00E
:103A90000BE06220005D94F83814884203D00321C3
:103AA0002046FFF74FF801E000E000BF00BF6220B2
:103AB000005D09285BD2DFE800F00513181C5A45A9
:103AC0001F1D1E002046FFF7BDF920B1032120462F
:103AD000FFF738F803E001212046FFF733F847E00D
:103AE00000212046FFF72EF810BD2046FFF7FEFD0F
:103AF0003EE000BF00BF00BF032001F0A0F9E8B125
:103B00000021782001537C200153E07C68B9207BA0
:103B1000FF280AD02046FEF71FFE052084F838044F
:103B200005212046FFF70EF807E06220005D03281C
:103B300003D003212046FFF705F819E02046FFF7E0
:103B4000D5FD15E0022001F07AF910B12046FFF70B
:103B5000BBFE042001F073F910B12046FFF77FFE91
:103B60002046FFF7C3FD2046FFF7F4F900E000BF51
:103B700000BF00BFB8E7000038B504460120334954
:103B8000087000204870FE213048C170F8202F498D
:103B9000887041F288312D488180F8202B49887146
:103BA000C87100200872012048722220488100203C
:103BB00081F834000021254880F835104162C16247
:103BC00006214187012181870221C18610210187B9
:103BD00005201E4908860120887381F832001C4A9E
:103BE0001C4800F092FF38B10EF0E6F91AA014F06C
:103BF00033F80EF024FA38BD00BF00BF1548FFF7B8
:103C000097FE00211A4800F099FC0028F6DC642297
:103C1000694618480BF0CFFFEFE710B500211548B3
:103C20000BF0BAFF10BD08B5082112480BF07AFF5F
:103C300010B111A014F010F80120C302002219499C
:103C4000009019A00CF0A7F808BD00001C09002086
:103C5000C80D002060090020505450443A2073746D
:103C60006172747570206661696C656400000000A3
:103C70002C0D0020C0080020505450443A206661AA
:103C8000696C656420746F2063726561746520706F
:103C900074705F616C6572745F7175657565206DB8
:103CA000626F7800793B00085054504400000000D7
:103CB0002DE9F04105460C4628780011207028783F
:103CC00000F00F006070687800F00F00A070698845
:103CD00088B202F005FC00B2A0802879A071E888C3
:103CE000A4F80700AE68EF68304602F005FC00213A
:103CF000C4E904012069C4E90410384602F0FCFB61
:103D0000D4E90423801843F10001C4E9040168697F
:103D1000A061A869E061A98B88B202F0E1FB01B261
:103D20002184E98B88B202F0DBFB00B2608495F855
:103D3000200084F8240095F8210084F82500BDE8CF
:103D4000F08170B505460C46002626707120405D56
:103D50006070A87C2071287808B10220A071002032
:103D6000A060E060A86D6061E86DA0616021495BC2
:103D700088B202F0B5FB00B2A0837F2084F8210056
:103D800070BD70B505460C46207800F0F00020703C
:103D9000207840F00B002070402002F0A1FB00B220
:103DA0006080B5F8861388B202F09AFB00B2E08317
:103DB000052084F820006C20405D84F82100163432
:103DC0000020E0602061A082B5F84C1088B202F0BB
:103DD00087FB00B2E08295F848006076287BA076E9
:103DE000687BE076E98988B202F07AFB00B2A083B2
:103DF00095F84900A077E96BC4F81F10286C44F8C7
:103E0000230FA98A88B202F06BFB00B2A080542075
:103E1000405DA071393C70BD70B504460D46243438
:103E200034F8021C88B202F05BFBA880206802F024
:103E300063FB2860606802F05FFBA860218988B29C
:103E400002F04EFB00B2A881E07AA873207B2874B0
:103E5000617B6974E18988B202F042FB01B2698238
:103E6000207C2875D4F81100C5F81500D4F8150089
:103E7000C5F81900B4F8191088B202F031FB00B28D
:103E8000E883E07E243C85F8200070BD70B50646CE
:103E90000C461546207800F0F00020702078207045
:103EA0002C2002F01DFB00B26080B6F8841388B2AB
:103EB00002F016FB00B2E083002084F820006E20A0
:103EC000805D84F821000020A060E060A88802F0F6
:103ED00007FB00B26084286802F00EFB6062A868ED
:103EE00002F00AFBA06270BD70B504460D46618CFD
:103EF00088B202F0F5FAA880606A02F0FDFA286044
:103F0000A06A02F0F9FAA86070BD70B506460C46CA
:103F10001546207800F0F0002070207840F0010075
:103F200020702C2002F0DCFA00B26080B6F8821318
:103F300088B202F0D5FA00B2E083012084F82000B4
:103F40007F2084F821000020A060E060A88802F0B3
:103F5000C7FA00B26084286802F0CEFA6062A868EE
:103F600002F0CAFAA06270BD70B504460D46618CBD
:103F700088B202F0B5FAA880606A02F0BDFA286043
:103F8000A06A02F0B9FAA86070BD70B506460C468A
:103F90001546207800F0F0002070207840F00800EE
:103FA00020702C2002F09CFA00B26080B6F88413D6
:103FB000491E88B202F094FA00B2E083022084F82D
:103FC00020006E20805D84F82100A88802F088FA25
:103FD00000B26084286802F08FFA6062A86802F07C
:103FE0008BFAA06270BD70B504460D46618C88B234
:103FF00002F076FAA880606A02F07EFA2860A06A71
:1040000002F07AFAA86070BD2DE9F04107460C462F
:1040100015461E46207800F0F0002070207840F011
:1040200009002070362002F05BFA00B260800020A8
:10403000A060E060686902F05FFAA060286902F0A1
:104040005BFAE060698C88B202F04AFA00B2E08361
:10405000032084F820006320C05D84F82100B0882C
:1040600002F03EFA00B26084306802F045FA606205
:10407000B06802F041FAA062A869E062E8692063D2
:10408000298C88B202F02CFA00B2A086BDE8F0813B
:1040900070B504460D46618C88B202F021FAA88002
:1040A000606A02F029FA2860A06A02F025FAA86086
:1040B000E06AE860206B2861A18E88B202F010FAF5
:1040C00001B2A98270BD70B506460C46154620782F
:1040D00000F0F0002070207840F0020020703620C0
:1040E00002F0FEF900B26080B6F8801388B202F0E8
:1040F000F7F900B2E083052084F820007F2084F8DF
:1041000021000020A060E060A88802F0E9F900B278
:104110006084286802F0F0F96062A86802F0ECF9A7
:10412000A0620020E0622063A08670BD70B50446E6
:104130000D46618C88B202F0D3F9A880606A02F063
:10414000DBF92860A06A02F0D7F9A86070BD70B5ED
:1041500004460D461646207800F0F00020702078C6
:1041600040F003002070362002F0BAF900B26080FF
:104170000020A060E060698C88B202F0B1F900B262
:10418000E083052084F820007F2084F82100B08897
:1041900002F0A6F900B26084306802F0ADF9606206
:1041A000B06802F0A9F9A062A869E062E86920633A
:1041B000298C88B202F094F900B2A08670BD70B567
:1041C00004460D46618C88B202F08AF9A880606AC4
:1041D00002F092F92860A06A02F08EF9A860E06A05
:1041E000E860206B2861A18E88B202F079F901B2F3
:1041F000A98270BD70B504460D461646207800F0C1
:10420000F0002070207840F00A002070362002F084
:1042100067F900B26080698C88B202F061F900B27F
:10422000E083052084F820007F2084F8210068695D
:1042300002F062F9A060286902F05EF9E060B088DF
:1042400002F04EF900B26084306802F055F9606205
:10425000B06802F051F9A062A869E062E8692063E1
:10426000298C88B202F03CF900B2A08670BD70B50E
:1042700004460D46618C88B202F032F9A880606A6B
:1042800002F03AF92860A06A02F036F9A860E06A04
:10429000E860206B2861A18E88B202F021F901B29A
:1042A000A98270BD10B5044600202082608204F10E
:1042B00014000BF01CFD10BD70B504460D46002621
:1042C00004F114000BF027FD207C401C00F00300DB
:1042D000B4F91210884209D0207C401C00F0030081
:1042E0002082B4F9100044F82050012604F1140093
:1042F0000BF01DFD304670BD70B50446002504F17D
:1043000014000BF008FDB4F91200B4F91010884243
:1043100008D0A07C401C00F003006082B4F91200B9
:1043200054F8205004F114000BF001FD284670BD34
:1043300010B5044604F114000BF0EDFC0AE0A07C7B
:10434000401C00F003006082B4F9121054F8210000
:1043500005F0BAF9B4F91200B4F910108842EED1A0
:1043600004F114000BF0E3FC10BD70B50446002509
:1043700004F114000BF0CFFCB4F91200B4F91010E2
:10438000884200D0012504F114000BF0D0FC28462F
:1043900070BD38B50446206800906946CF4804F0E7
:1043A00054FAE06838B1E0680BF01BF9E0680BF0F4
:1043B00023F90020E060206938B120690BF011F981
:1043C00020690BF019F90020206100202060A06016
:1043D000012038BD2DE9F04106460D461746C0487C
:1043E000046894F8262004F12701284613F0C8F940
:1043F0006068BDE8F0812DE9F0470446884615461F
:104400009946089F2646294606F11400FFF754FFF7
:1044100020B9284605F058F9BDE8F087FFF7FDFB05
:1044200000BFF9E72DE9F04704468846154699464E
:10443000089F2646294606F14000FFF73DFF20B9B8
:10444000284605F041F9BDE8F087FFF7E6FB00BF1D
:10445000F9E730B587B004460D4604F11400FFF7C4
:1044600021FF04F14000FFF71DFFD5F8641401F1AE
:104470000C00224605F23941FFF7ACFF0590059884
:1044800000B959E00BF0D6F8E060E06800B952E0FE
:104490000BF0D0F82061206900B948E00020A0604E
:1044A00090A30FCBCDE90323CDE9010106A901A813
:1044B00004F0C7FD00B936E00698206006A905A8FB
:1044C00004F060F98AA30FCBCDE90323CDE9010104
:1044D00006A901A804F0B5FD00B924E006986060C3
:1044E00006A905A804F04EF9E168206888612169F1
:1044F0002068886122468149E0680BF07AF840F232
:104500003F127649E0680AF035FF22467C4920696F
:104510000BF06FF84FF4A072704920690AF02AFF7F
:10452000012007B030BD20690BF066F800BFE068DD
:104530000BF062F800BF00BF0020F2E770B5044640
:104540000D4604F11400FFF710FF20B904F14000FC
:10455000FFF70BFF08B1012070BD0020FCE710B58C
:10456000044604F11400FFF7E3FE10BD2DE9F05FEF
:1045700082460E4693465846FFF7BEFE040001D120
:10458000BDE8F09F2089B0F5967F04DD204605F058
:104590009BF80020F4E7208920B9204605F094F824
:1045A0000020EDE71EB12069306060697060B4F8EA
:1045B000089025464FF0000800270DE0404608F11E
:1045C00001086A68105C0AF807006889404502D152
:1045D0002D684FF000087F1C4F45EFDB204605F0AB
:1045E00073F84846CCE770B506460C46154606F10A
:1045F000140229462046FFF7B9FF70BD70B5064684
:104600000C46154606F1400229462046FFF7AEFF4C
:1046100070BD2DE9F04780460D4616469946DDF8F7
:1046200020A0A9B20022104605F093F8044604B970
:104630001BE0AAB24146204605F0EBFA074607B157
:104640000FE0BAF812304A46214650460AF061FFA0
:10465000074607B105E01EB12069306060697060EF
:1046600000BF204605F030F800BF2846BDE8F087BF
:10467000F8B504460D4616461F46E06823463A46FE
:10468000314600902846FFF7C4FFF8BDF8B5044650
:104690000D461646206923460022314600902846E2
:1046A000FFF7B7FFF8BDF8B504460D46164620697A
:1046B000231D0022314600902846FFF7AAFFF8BDCF
:1046C000F8B504460D4616461F46E068231D3A46D7
:1046D000314600902846FFF79CFFF8BD9C810108F9
:1046E000A80000203232342E302E312E31323900E3
:1046F0003232342E302E302E31303700F74300085E
:104700002544000810B5044600214FF44B700151B8
:10471000C4F828130020C4F8C4034FF46B7001518F
:1047200040F25640015B4FF46A70015300214FF490
:10473000677001514FF48B60015B4FF46670015359
:10474000002084F88C0384F88D0300214FF44F700F
:104750000151C4F838134FF451700151C4F840139B
:104760004FF453700151C4F848134FF45570015180
:10477000C4F8501332200155A163A18640F2514084
:10478000005D10B9002000F08DFA04F57370FFF79A
:10479000E6FE10BD10B50446002C00DA64420CB9E8
:1047A000002010BD2046FDF782FEFAE72DE9F0411A
:1047B00006460C46E068401CE060E068012805D130
:1047C000306820603068606000206081B4F9085073
:1047D0000120A840E168884204DDE068FFF7DAFFC5
:1047E000054602E00120A840E06020683168884268
:1047F00001DD024600E00A4690464046FFF7CAFF48
:10480000C0F11E0729463846814201DD024600E01C
:104810000A461546B4F90A00A84205DDA17A491BEB
:1048200060680841606008E0B4F90A00A84204DA50
:10483000A17A691A60688840606030682168401A0F
:1048400061680844606060682841206028B2608127
:1048500020683060BDE8F0812DE9F04104460E4645
:1048600017461D463A46314604F54A70FDF7F3FDFA
:104870002A4604F54A710846FDF7EDFD04F540713E
:10488000CA6A896AC4E906126F20005D012802D055
:10489000022810D107E004F1200204F118010846B3
:1048A000FDF7D9FD08E004F1640204F1180108469F
:1048B000FDF7D1FD00E000BF00BFA06958B1622044
:1048C000005D082805D1D4F85C0440F40070C4F8F9
:1048D0005C04BDE8F08104F5647104F11C00FFF78D
:1048E00065FFE069002801DB014600E0414242F239
:1048F000107291420ADA6220005D072819D1D4F8BB
:104900005C0440F48060C4F85C0412E0E0690028B4
:1049100001DB014600E04142754A914209DD622017
:10492000005D082805D1D4F85C0440F40070C4F898
:104930005C0400BFCDE72DE9F04104460D46164664
:104940001F464FF46770005908B9BDE8F0812A4648
:10495000314604F54C70FDF77EFD3A4604F54C7186
:104960000846FDF778FD04F54C7204F54A7104F130
:104970002000FDF760FD04F12000FDF77CFD206ABA
:1049800028B904F5687104F12400FFF70FFF00BF98
:10499000DBE77FB504460D461646A6B104F54E7218
:1049A00004F5507102A8FDF756FD04F5527204F5A6
:1049B00054716846FDF74FFD6A4602A904F1640090
:1049C000FDF739FD07E004F54E7204F5547104F16A
:1049D0006400FDF740FD2A4604F164010846FDF736
:1049E0003AFD04F16400FDF746FD606E00B17FBD45
:1049F00004F5687104F16800FFF7D8FE00BFF6E720
:104A00007CB50446A16941B9E069002801DB014693
:104A100000E04142374A914223DD40F25140005DBF
:104A2000002858D194F8500478B9684600F011F97C
:104A300004F1180269466846FDF70DFD684600F06E
:104A400012F92046FFF75EFE45E0E069002802DD2E
:104A50004FF4FA2000E028480646704200F022F9A0
:104A600039E0E56994F96E00002803DD6E20005DF1
:104A7000054107E094F96E00002803DA6E20005D1E
:104A800040428540B4F9540495FBF0F0D4F8C413C7
:104A90000844C4F8C403D4F8C403B0F5FA2F04DD05
:104AA0004FF4FA20C4F8C40307E0D4F8C40310F5A7
:104AB000FA2F02DA1048C4F8C40340F25140005DF6
:104AC00048B9B4F9520495FBF0F0D4F8C413461871
:104AD000704200F0E7F86F20005D012802D0022844
:104AE00002D100E001E000E000BF00BF7CBD00009B
:104AF00040420F0000E1F5050030F8FF10B5044614
:104B000004F57370FFF745FC10BD70B505460C4603
:104B10001646C5F864446E67607A08B1FF20A0703D
:104B2000B4F93600012801DA0121E186B4F9380030
:104B3000012801DA0121218700212846FEF702F829
:104B4000002070BD2DE9F04385B0044604F128062D
:104B5000F079B27971793379CDE90131CDE903206A
:104B6000F0780090B3787278317857A013F074F829
:104B70006220005D092818D2DFE800F0050715095A
:104B800011130B0D0F005AA511E05BA50FE05CA5FA
:104B90000DE05EA50BE05FA509E062A507E063A557
:104BA00005E063A503E064A501E066A500BF00BFC2
:104BB000294665A013F050F86F20005D012802D04F
:104BC00002280AD104E063A0616A13F045F808E006
:104BD00060A0A16E13F040F803E064A013F03CF86D
:104BE00000BF00BFA06920B166A0A16913F034F82E
:104BF00003E068A0E16913F02FF82027D4F8C4037C
:104C0000002800DD2B27D4F8C403002800DA2D2764
:104C10004FF47A71D4F8C40390FBF1F201FB12084F
:104C200090FBF1F9B8F1000F01DB404601E0C8F15B
:104C300000000346B9F1000F01DB484601E0C9F16D
:104C400000000246394658A013F006F805B0BDE84A
:104C5000F0831CB5044668460AF017FD00982060F2
:104C6000019860601CBD1CB5044620680090606817
:104C7000019068460AF02DFF1CBD1CB50446206853
:104C80004042009060684042019068460AF0BCFED5
:104C90001CBD10B5044612F061FDB0FBF4F104FB3D
:104CA000110010BD10B50446B4F5FA2F02DD4FF423
:104CB000FA2403E014F5FA2F00DA414C20460AF0FA
:104CC0007BFE012010BD00002530325825303258BF
:104CD0003A25303258253032583A2530325825306E
:104CE00032583A25303258253032580A0000000038
:104CF000696E6974000000006661756C747900006B
:104D00006C697374656E696E67000000706173731F
:104D100069766500756E63616C6962726174656461
:104D200000000000736C6176650000007072652001
:104D30006D6173746572000064697361626C6564AF
:104D4000000000003F00000073746174653A202584
:104D5000730A0000706174682064656C61793A20A0
:104D60002564206E7365630A00000000706174683A
:104D70002064656C61793A20756E6B6E6F776E0A90
:104D8000000000006F66667365743A202564207326
:104D900065630A006F66667365743A202564206E49
:104DA0007365630A0000000064726966743A202526
:104DB0006325642E253033642070706D0A00000076
:104DC0000030F8FF70B504462546062D04DA0120B0
:104DD00022494855FEF721FF70BD10B500240BE0B5
:104DE0001F4901EB4410234600221E490AF04BFFE5
:104DF00000201A490855641C062CF1DB10BD10B5C3
:104E00000446062C00DB10BD154901EB44100AF0E6
:104E100063FF00201149085500BFF4E770B5044650
:104E20000D46062C00DB70BD00200C4908550C49CE
:104E300001EB441029460AF043FF00BFF3E70146A7
:104E4000062901DB002070470448405C08B90020B7
:104E5000F9E70020014A50540120F4E768000020DF
:104E6000800F0020C54D0008F0B587B007460D46FD
:104E700016463146384600F088FE0446FCB1F84834
:104E800001908DF81050029401A807F071FFB0B1A5
:104E900000BF00BF00BF00BF00BF00BF00BF00BF1A
:104EA00004F10C000AF0EEFE04F11C000AF057FEBB
:104EB0002146062004F0E6FB002007B0F0BD2046A6
:104EC000FBE710B586B0044614B9002006B010BD4B
:104ED000E44800900194684607F04AFF204600F03D
:104EE00041FE0020F2E72DE9F04387B004460D466D
:104EF0001646984600BF24B96FF00D0007B0BDE814
:104F0000F08300BF00BF15B96FF00D00F6E700BFDA
:104F100000BF16B96FF00D00F0E700BFD248019056
:104F20000294049505968DF8188001A807F020FFDB
:104F3000074600BF0AF013FF814694F9080010F1FC
:104F4000090F00DB277248460AF016FF00BF3846FB
:104F5000D4E72DE9F04186B004460E46174600BF5F
:104F600024B96FF00D0006B0BDE8F08100BFBF4866
:104F7000009001940396ADF81070684607F0F8FEB3
:104F8000054600BF0AF0EBFE804694F9080010F1D8
:104F9000090F00DB257240460AF0EEFE00BF2846EE
:104FA000E1E72DE9F04186B004460E46174600BF02
:104FB00024B96FF00D0006B0BDE8F08100BFAC4829
:104FC000009001940396ADF81070684607F0D0FE8B
:104FD000054600BF0AF0C3FE804694F9080010F1B0
:104FE000090F00DB257240460AF0C6FE00BF2846C6
:104FF000E1E770B586B0044600BF1CB96FF00D0044
:1050000006B070BD00BF9B4800900194684607F051
:10501000AFFE054600BF0AF0A2FE064694F908005E
:1050200010F1090F00DB257230460AF0A5FE00BF23
:105030002846E5E7F0B587B004460E4600BF1CB928
:105040006FF00D0007B0F0BD00BF8B4801900294D7
:105050008DF8106001A807F08BFE054600BF0AF02E
:105060007EFE074694F9080010F1090F00DB257257
:1050700038460AF081FE00BF2846E3E7F0B587B066
:1050800004460D4600BF1DB96FF00D0007B0F0BD1E
:1050900000BF0020286000BF14B96FF00D00F5E7D5
:1050A00000BF00BFA06F08B1012000E0002010B9D0
:1050B0006FF00D00EAE700BF94F9086016F1090FE0
:1050C00001DA3046E2E7002206A904F178000AF08E
:1050D00072FDD4F8E40028B1002201212046D4F862
:1050E000E4309847069888B900BF0AF038FE0746B2
:1050F00094F9080010F1090F01DBF6202072384600
:105100000AF03AFE00BF6FF00900BFE75B4800906D
:105110000194684607F02CFE069828600020B5E749
:105120002DE9F04188B004460D460020079000BFED
:1051300025B96FF00D0008B0BDE8F08100BF002078
:10514000286000BF14B96FF00D00F4E700BF00BF86
:10515000E06908B1012000E0002010B96FF00C00F8
:10516000E9E700BF94F9087017F1090F01DA384632
:10517000E1E7002207A904F11C000AF01CFD2078D9
:10518000102834D194F8D80000F0080008B107982E
:1051900068B93A4801900294079818B107980189B4
:1051A000049101E00121049101A807F0E1FD0798B5
:1051B000D0B9D4F8E40028B1002201212046D4F867
:1051C000E430984700BF0AF0CAFD804694F9080011
:1051D00010F1090F01DBF420207240460AF0CCFDEB
:1051E00000BF6FF00B00A6E70798068904E000BF38
:1051F00000BF079800680689D4F8E40028B1324659
:1052000001212046D4F8E430984700BF00BF07983A
:10521000286000208FE770B504460D4600BF14B12A
:105220002078102802D06FF00D0070BD00BF294615
:105230002046FFF775FFF8E72DE9F84305460E46CF
:10524000002400BF1EB96FF00D00BDE8F88300BF59
:105250000020306000BF9DB96FF00D00F5E7000041
:10526000455D0008195E000851630008015F0008F1
:105270000F600008E16000080F6100087B62000811
:1052800000BF00BFE86908B1012000E0002010B9AC
:105290006FF00C00D9E700BF287810282FD100202C
:1052A0000090052004F0D1F904468CB900BF0AF043
:1052B00056FD804695F9080010F1090F01DBFF202B
:1052C000287240460AF058FD00BF4FF0FF30BCE79F
:1052D00069462846FFF724FF07462FB121460520DF
:1052E00004F0D0F93846B0E700BF00BF0098206056
:1052F000009860600020A081A0603460A5E731467E
:105300002846FFF70DFFA0E730B587B004460D46ED
:105310007CB1207810280CD194F8D80000F0080057
:1053200038B17F4801900294049501A807F020FD50
:1053300000BF07B030BDF0B587B004460E4600BFD1
:105340001CB96FF00D0007B0F0BD00BF00BF00BF7B
:10535000744801900294049601A807F009FD0546DF
:1053600000BF0AF0FCFC074694F9080010F1090F91
:1053700000DB257238460AF0FFFC00BF2846E2E752
:105380002DE9F04107460C4615461E465CB10DB9A5
:10539000002000E02868A060A68121463846FFF77B
:1053A000CAFFBDE8F0816FF00500FAE72DE9F04F84
:1053B00087B00446894615469846109E00BF24B91A
:1053C0006FF00D0007B0BDE8F08F00BF00BF207880
:1053D000102802D06FF00500F4E700BF0DB90020DF
:1053E000F0E794F8D80000F0020010B908F00400CB
:1053F00008B1012000E000208246BAF1000F03D07E
:1054000016B96FF00500DDE7474801900294CDF82A
:1054100010908DF81880059501A807F0A9FC0746A3
:105420003FB936B1BAF1000F02D00598306000E004
:10543000356000BF0AF093FC834694F9080010F130
:10544000090F00DB277258460AF096FC00BF384669
:10545000B8E7F0B587B004460E4600BF1CB96FF040
:105460000D0007B0F0BD00BF3048019002948DF8E8
:10547000106001A807F07CFC054600BF0AF06FFC35
:10548000074694F9080010F1090F00DB2572384631
:105490000AF072FC00BF2846E3E710B5044603217A
:1054A0002046FFF7D6FF10BD70B506460C461546E0
:1054B0000CB1012000E000200DB1022200E000222A
:1054C00040EA02013046FFF7C4FF70BD2DE9F0430A
:1054D00087B004460E461746984600BF24B96FF0C1
:1054E0000D0007B0BDE8F08300BF114801900294A1
:1054F000049605978DF8188001A807F039FC054639
:1055000000BF0AF02CFC814694F9080010F1090F45
:1055100000DB257248460AF02FFC00BF2846E0E772
:105520007B620008D5610008E3620008036400089C
:10553000856400082DE9F05F0746894690469B4642
:105540003E46002E42D0F06908B1012000E0002064
:1055500000283BD0B8F808100022032004F0F9F826
:10556000054645B14146284604F0A6FA18B128463A
:1055700004F0AAF800254DB3052004F066F80446AF
:105580002CB9284604F0A0F80020BDE8F09F256063
:105590006560FE480068A06099F81000A081B5F829
:1055A00008A0214606F11C000AF0F6FA20B12046B8
:1055B00004F021FC0020E8E7D6F8E40028B15246C8
:1055C00000213046D6F8E430984700BF0020DCE7E1
:1055D0002DE9F05F80468B4616461F46DDF828A071
:1055E00000BF00BF00BF00BF454600BF00BF2DB1D8
:1055F000E86908B1012000E0002020B9304604F03D
:1056000063F8BDE8F09F052004F01FF804461CB9BC
:10561000304604F059F8F4E7266066600FB90020C0
:1056200000E03868A060A4F80CA0B6F80890214605
:1056300005F11C000AF0B0FA18B1204604F0DBFBBB
:10564000DFE7D5F8E40028B14A4600212846D5F81E
:10565000E430984700BFD4E72DE9F0470746884675
:105660001546994600BF00BF00BF00BF3C4600BFC3
:1056700000BF1CB96FF00500BDE8F087E06908B114
:10568000012000E0002048B935B12989404606F0E4
:1056900077FE284604F018F80020EDE700BF0AF076
:1056A0005EFB824694F9080010F1090F01DB84F8D3
:1056B000089050460AF060FB00BF0DB12E8900E053
:1056C0000026294604F11C000AF066FA10B14FF0DA
:1056D000FF30D1E7D4F8E40028B13246002120465B
:1056E000D4F8E43098470020C6E72DE9F047074694
:1056F0000E463C4600BF00BF002060600AF02FFB52
:105700008146267248460AF037FB657800206070B3
:10571000D4F8E40028B1002204212046D4F8E43073
:105720009847D4F8E40028B1002211462046D4F866
:10573000E4309847D4F8E40028B100220221204642
:10574000D4F8E4309847E06908B1012000E0002077
:1057500020B1002104F11C000AF01EFAA06F08B16C
:10576000012000E0002020B1002104F178000AF0BF
:1057700013FA012D03D0042D01D0032D1BD194F871
:10578000D800C0F3800800BF94F8D80020F00400CF
:1057900084F8D80000BFB8F1000F0BD100BF00BFE4
:1057A000D4F8E00006710020C4F8E00004F10C0019
:1057B0000AF05FFA01E000BF00BFBDE8F0872DE905
:1057C000F84F04460020009094F8D80000F0020042
:1057D00028B9D4F8E000007C00F0040008B10120F2
:1057E00000E000200746D4F8E00090F8108000BFE9
:1057F00000BF00BF00BF00BF00BF00BF00BF00BFB1
:1058000000BFDC3460688068216800EB010B6068D1
:10581000C06854F8DC19A0EB010ABAF5803F04D344
:105820004FF6FF7648F0020801E01FFA8AF660683A
:10583000B0F86690B14507DA4E461FB126B96FF051
:1058400006050EE048F0020800BF00BF434632469E
:105850005946606808F08AFE05460DB1681C58BBC1
:1058600000BFA7B1D4F8E000C068B0420FD9D4F8A7
:10587000E40028B1324603212046D4F8E4309847AA
:1058800094F8D80040F0100084F8D80014E0606864
:10589000B0F8660040F66931884204DD6068B0F80F
:1058A0006800052808DBD4F8E40028B1324603215B
:1058B0002046D4F8E4309847BDB954F8DC0F3044A2
:1058C0002060D4E90010DC3CC068814200D047B1C0
:1058D00054F8DC1F6068C16001200090002044F88B
:1058E000DC09606809F0BEF80CE0681C20B91FB93B
:1058F000606809F0B7F805E0012000900021D4F8B5
:10590000E000C160009850B1D4F8E00005710020BB
:10591000C4F8E000607004F10C000AF0AAF900205D
:10592000BDE8F88F2DE9F04105460F4616462C4696
:1059300000BF00BF6078012803D12046FFF73FFF7A
:1059400005E06078042802D1204600F023F8DCB19D
:105950006068C8B16068B0F8660040F66931884296
:1059600012DD6068B0F8680005280DDA14F8D80F69
:1059700020F010002070E068D83C28B132460221A7
:105980002046D4F8E4309847002001E08C00002045
:10599000BDE8F0812DE9F047044600BF00BF00BF1D
:1059A00000BF00BF00BF00BF00BF00BF00BFD4F8F2
:1059B000E000067A06F0010706F00208032E01D186
:1059C000012000E000208146B9F1000F03D0002142
:1059D000606807F099F86068007E012804D1002112
:1059E000606807F0A0F81BE03FB10021606807F095
:1059F0008DF80021606807F096F8B8F1000F03D029
:105A00000021606807F086F8B9F1000F08D0042281
:105A10000021606807F089F80021606807F07EF8CF
:105A2000B9F1000F04D0606806F075FC054605E08A
:105A300042463946606806F07FFD054675BB00208A
:105A4000D4F8E0100871C4F8E0006070B9F1000FFC
:105A500009D06060D4F8E40028B100220421204677
:105A6000D4F8E430984747B1D4F8E40028B10022D4
:105A700011462046D4F8E4309847B8F1000F08D01A
:105A8000D4F8E40028B1002202212046D4F8E43002
:105A9000984704F10C000AF0ECF812E000BF00BFD8
:105AA000FD49606807F036F80422FC49606807F099
:105AB0003CF8FB49606807F031F82146606807F060
:105AC00023F8BDE8F08770B505460E462C4600BFAA
:105AD00000BF6078012803D12046FFF770FE05E083
