:020000040800F2
:10000000883F0120899F0108F5060008F7060008CF
:10001000FB060008FF0600080307000800000000B8
:1000200000000000000000000000000015020008B1
:100030000707000800000000B502000819030008C7
:10004000A39F0108A39F0108A39F0108A39F010884
:10005000A39F0108A39F0108A39F0108A39F010874
:10006000A39F0108A39F0108A39F0108A39F010864
:10007000A39F0108A39F0108A39F0108A39F010854
:10008000A39F0108A39F0108A39F0108A39F010844
:10009000A39F0108A39F0108A39F0108A39F010834
:1000A000A39F0108A39F0108A39F0108A39F010824
:1000B000A39F0108A39F0108A39F0108A39F010814
:1000C000A39F0108A39F0108A39F0108A39F010804
:1000D000A39F0108A39F0108A39F01082B07000805
:1000E000A39F0108A39F0108A39F0108A39F0108E4
:1000F000A39F0108A39F0108A39F0108A39F0108D4
:10010000A39F0108A39F0108A39F0108A39F0108C3
:10011000A39F0108A39F0108A39F0108A39F0108B3
:10012000A39F0108A39F0108A39F0108A39F0108A3
:10013000A39F010809070008A39F0108A39F0108C6
:10014000A39F0108A39F0108A39F0108A39F010883
:10015000A39F0108A39F0108A39F0108A39F010873
:10016000A39F0108A39F0108A39F0108A39F010863
:10017000A39F0108A39F0108A39F0108A39F010853
:10018000A39F0108A39F0108DFF81CD01AF0E2FA30
:1001900013F03FFB0021034813F007FC13F04DFB65
:1001A000FEE70000F4000020883F012080F309886A
:1001B0007047EFF309807047684680F30988044868
:1001C0000078C00714BF0220032080F31488704712
:1001D000BCAD0108DFF818C0EFF305831B0618BF9C
:1001E0006047EFF31483DB0708BF604700DF704709
:1001F00025500108DFF818C0EFF305831B0618BF70
:100200006047EFF31483DB0708BF604700DF7047E8
:100210006B500108EFF30980816911F8021C99BB4A
:1002200090E80F1010B5E047BDE81040EFF3098CDF
:100230008CE807001C4B93E80600914208BF70470A
:1002400081B11EF0100F06BF2CED108A0120002096
:1002500081F825002CE9F00FC1F828C00CB415F086
:10026000E7FA0CBC1A60D2F828C0BCE8F00F92F88C
:10027000250000281ABFBCEC108A6FF0120E6FF038
:10028000020E8CF30988704710B5084A1268914233
:1002900009D8074C54F8214090E80F10A047EFF31D
:1002A000098C8CE80F0010BD1C010020D0A70108AC
:1002B000D0A7010810B515F02EFABDE81040154B77
:1002C00093E80600914208BF7047EFF3098C1EF0D7
:1002D000100F06BF2CED108A0120002081F82500A8
:1002E0002CE9F00FC1F828C00CB415F0A1FA0CBC31
:1002F0001A60D2F828C0BCE8F00F92F82500002858
:100300001ABFBCEC108A6FF0120E6FF0020E8CF365
:10031000098870471C01002010B515F06DFACCE774
:1003200010B515F068FA15F067FAC6E705E0002089
:1003300016F0A1FDFA2013F0A7FBF8E705E0012075
:1003400016F099FDFA2013F09FFBF8E710B5002096
:1003500016F062FD012016F05FFD10BD1FB5684666
:1003600017F056F84FF4612000900020ADF804001B
:10037000ADF80600ADF80800ADF80C000C20ADF8A3
:100380000A006946012016F0D4FD4AA01AF022FAAC
:100390001FBD08B5642013F077FBFFF7DFFFFFF701
:1003A000D5FF01F079FA00F069FA05F054F900F090
:1003B000C5FC01F0B1FE4FF0FF304FF48063002226
:1003C000AFF29701009040A012F0B3FF4FF0FF3062
:1003D0004FF480630022AFF29B0100903CA012F02A
:1003E000A8FF13F02AFA00BF4FF4FA7013F04CFB89
:1003F000FAE700B587B00121084618F0EDF90121B0
:10040000102018F02DFA07220921334818F029F896
:1004100007220A21304818F024F800208DF80A003D
:1004200001208DF80B0002208DF808008DF80900DE
:100430000002019001A9284817F088FF4FF480605E
:10044000019001A9244817F081FF03A816F0E0FFEE
:100450004FF4612003900020ADF81000ADF81200B9
:10046000ADF81400ADF818000C20ADF8160003A983
:100470001A4816F067FF0121184816F0EBFF0DA08F
:100480001AF0A8F907B000BD70B504460D460A2C55
:1004900003D129460D20FFF7F7FFE1B2104817F00E
:1004A00004F800BF40210E4817F0AFF80028F9D03B
:1004B000204670BD0A555341525420496E697469F3
:1004C000616C697A65640A004A4F4231000000009D
:1004D0004A4F42320000000000000240001001407C
:1004E000004800400CB5002001900090764800685C
:1004F00040F480307449086000BF7348006800F41D
:10050000003000900198401C0190009818B90198A3
:10051000B0F5A06FF1D16C48006800F4003010B164
:100520000120009001E0002000900098012846D1B1
:1005300065484030006840F08050634940310860B1
:100540006248006840F48040604908605E480830B6
:1005500000685D49083108600846006840F40040C2
:1005600008600846006840F4A05008605848091F19
:100570000860081F006840F08070091F086000BF15
:100580005148006800F000700028F9D040F2056082
:10059000504908604C480830006820F003004A4980
:1005A000083108600846006840F00200086000BF9B
:1005B00045480830006800F00C000828F8D10CBD50
:1005C00010B54548006840F47000434908603E4853
:1005D000006840F001003C49086000203A490831B9
:1005E0000860394800683D490840374908603C4880
:1005F000091D0860081F006820F48020091F08609A
:10060000002031490C310860FFF76CFF4FF00060AB
:1006100031498039086010BD70B5002000220223E6
:1006200000240221284D08352D6805F00C0020B16A
:10063000042806D0082834D107E02A4D2A4E356018
:1006400033E02A4D284E35602FE01F4D2D1D2D68BB
:10065000C5F380541C4D2D1D2D6805F03F0154B18C
:10066000224DB5FBF1F5184E361D3668C6F38816D7
:1006700005FB06F209E01B4DB5FBF1F5124E361DE8
:100680003668C6F3881605FB06F20F4D2D1D2D6842
:10069000C5F301456D1C6B00B2FBF3F5124E3560DE
:1006A00003E0104D104E356000BF00BF064D083509
:1006B0002D68C5F303150E4E705D0B4D2D68C540BA
:1006C000094E356070BD00000038024000700040E7
:1006D00008544007003C024088ED00E0FFFFF6FEB2
:1006E000103000240024F4000000002000127A00E2
:1006F00004000020704700BFFEE700BFFEE700BF18
:10070000FEE700BFFEE7704710B5402019F007FA7A
:10071000012802D1514812F07AFD402019F023FA45
:100720004FF4803019F01FFA10BD70B54C480088A6
:10073000C4B24C480068B0F5FA7F19D24A48B0F804
:10074000B401802803DB7F204749A1F8B401464962
:10075000B1F8B401411C444BA3F8B4111946B1F8E7
:10076000B21101EBC10103EB011110310C5471E026
:100770003D48B0F8B201401C032190FBF1F201FBAF
:1007800012003949B1F8B01188421CD00020364916
:10079000A1F8B4010846B0F8B201401C032190FB57
:1007A000F1F201FB12003049A1F8B2010846B0F89D
:1007B000B20100EBC00001EB001000F10805284673
:1007C00012F029FA06E02848B0F8B601401C264984
:1007D000A1F8B6012548006825490988401A00B2E9
:1007E0002149B1F8B21101EBC1011F4A02EB01111D
:1007F00088802048006820490988401A00B21146C4
:10080000B1F8B21101EBC10102EB0111C880104631
:10081000B0F8B401802803DB7F201146A1F8B401B1
:100820001149B1F8B401411C0F4BA3F8B41119469A
:10083000B1F8B21101EBC10103EB011110310C54FD
:100840000A48006800B20A4908800A48006800B2F5
:100850000949088000200349086070BDA0AB002052
:10086000044800402414004050120020240400409A
:1008700014000020240800401600002000B587B0B6
:10088000002108460FF0C7F9134806906FF07F402B
:1008900005901248049012481249002204ABCDE999
:1008A0000021029005AA06A90F480CF0DEF80E48B8
:1008B0000CF07AF90D48006811280AD10A4890F81E
:1008C0002D0040F01000084981F82D0008460CF07A
:1008D000FEF907B000BD0000C0A80110C0A80101CA
:1008E00053FA0008152F0108A80100201C00002061
:1008F000F8B504460D461646FF208DF80000E8B214
:100900008DF80100F0B28DF8020000230322694641
:1009100020680DF0B5F8F8BD70B506460C461546D2
:10092000182D1BD004DC012D07D0032D1ED105E0AE
:100930001F2D14D0202D19D112E027E0FB2C01D05F
:10094000FC2C05D12A46FD213046FFF7D1FF04E0FB
:100950002A46FB213046FFF7CBFF17E000BF00BF60
:100960002A46FD213046FFF7C3FF0FE0FB2C01D0E4
:10097000FC2C05D12A46FE213046FFF7B9FF04E0E2
:100980002A46FC213046FFF7B3FF00BF00BF70BD11
:100990002DE9F04704460E4615461F46182E1BD07B
:1009A0001F2E02D0202E18D115E0042F12D1288836
:1009B00007F098FF8046688807F094FF8146B8F1F9
:1009C000000F01D0C4F81481B9F1000F01D0C4F8B0
:1009D000189100BF01E000E000BF00BFBDE8F08754
:1009E0002DE9F0410446D4F81C733E465EE017F84A
:1009F000015B6068062857D2DFE800F0030B28305F
:100A00003749FF2D02D10120606001E006F8015B4B
:100A10004AE0A5F1FA00062813D2DFE800F00F083B
:100A2000090A0B0306F8015B002060600CE000BFC0
:100A300000BF00BFA5600220606005E00320606089
:100A400002E00020606000BF00BF2DE02A46204683
:100A5000A168FFF761FF0020606025E0A56000202D
:100A6000C4F80C01042060601EE0FF2D02D10520B7
:100A700060600BE0D4F80C01FF2807D8D4F80C21F3
:100A8000501CC4F80C0104F10C0085540CE0F02D4E
:100A900007D104F10C022046D4F80C31A168FFF70D
:100AA00077FF0020606000BF00BF00BFD4F82003C4
:100AB000B8429CD8C4F82063BDE8F0812DE9FF4717
:100AC00007460D469146BA46002600BFF748006823
:100AD000D0F82415F548006800F54970081AC0F5EB
:100AE0000074A54200DA2C46002C12DBEF4909689D
:100AF0002246D1F82405394619F014FD2D1BEB4888
:100B00000068D0F824050119E8480068C0F82415E9
:100B10002744E6480068D0F82415E448006800F54A
:100B20004970081AB0F5007F02DAB9F1000F73D0EE
:100B3000002006460446DD48006800F5497A00BFFB
:100B400000200390D94909680868C11700EB51716A
:100B5000C91003AA515CD54A1268127802F0070343
:100B600001229A401143D14A12681068C21700EB63
:100B70005272D21003AB99540120019000200290D0
:100B800001A8002303AA1946009014200DF09FF934
:100B90008046B8F1000F27DDC44909680868C1170D
:100BA00000EB5171C91003AA515CC04A1268127857
:100BB00002F0070301229A401140A9B1BB4909681C
:100BC000D1F82435B949096801F54971591A0A1B48
:100BD000B64909680023086851460CF051FF0646E3
:100BE000002E01DBB2443444002E0DDBAF48006818
:100BF000D0F82415AD48006800F54970081AA042E5
:100C000002DDB8F1000F9BDCA848006800F54970D0
:100C1000A6490968C1F82405002D3FF757AF002EFB
:100C200003DA304604B0BDE8F0872046FAE71CB589
:100C3000044600200190042001AB0122062100900F
:100C400020460DF0D0FD40F22C519848006819F074
:100C500082FC964800680460002094490968486056
:100C6000022092490968C1F8100150218F4800689C
:100C7000C0F8141119218D480068C0F8181101221C
:100C8000FB218A480068FFF733FE8848006800F5BA
:100C9000497086490968C1F8240500F05AFC834868
:100CA00000680068002809DB8049096808680CF0C2
:100CB00060FC4FF0FF307D49096808601CBD70B5CD
:100CC0008AB006460022012102200CF0DEFF051E3C
:100CD00008DA14F04DFC76A019F07CFD14F08BFCC2
:100CE0000AB070BD02208DF81500172007F0F4FD42
:100CF000ADF8160000200690102205A928460CF039
:100D0000E7FB002807DA14F033FC71A019F062FD4C
:100D100014F071FCE4E7012128460CF0ACFC102033
:100D2000099000BF09AA01A928460CF008FB044657
:100D3000002CF7DD2046FFF77AFFF3E708B5002027
:100D40004FF4806302466949009069A012F0F1FAFD
:100D500008BD01B59DF800000A2802D10D20FFF75B
:100D6000F8FF52480068006800280BDD9DF800007D
:100D70000A2801D1012000E0002002460121684636
:100D8000FFF79CFE08BD10B5044603E014F8010B04
:100D9000FFF7DFFF20780028F8D110BD0FB42DE950
:100DA000F04F87B011A8019000BF109810F8014BC8
:100DB000109004B92AE1252C03D02046FFF7C9FF83
:100DC000F3E70026109810F8014B1090302C05D155
:100DD0000126109810F8014B109006E02D2C04D13C
:100DE0000226109810F8014B10904FF0000909E00E
:100DF00009EB890004EB4000A0F13009109810F8CD
:100E0000014B1090302C01DB392CF1DD6C2C01D022
:100E10004C2C05D146F00406109810F8014B1090A8
:100E200004B9F3E02546612D02DBA5F12000C5B22F
:100E30004F2D6CD006DC422D66D0432D5CD0442D66
:100E400070D167E0532D04D0552D64D0582D69D151
:100E500064E0019850F804BB01904FF0000801E0F5
:100E600008F101081BF808000028F9D102E0202051
:100E7000FFF76FFF06F0020020B9404608F10108B5
:100E80004845F4D303E01BF8010BFFF762FF9BF822
:100E900000000028F7D102E02020FFF75AFF40466B
:100EA00008F101084845F7D37FE730E0180000203B
:100EB00054454C4E45543A2063616E6E6F74206306
:100EC000726561746520736F636B65740000000068
:100ED00054454C4E45543A2063616E6E6F742062E7
:100EE000696E6420736F636B65740000BF0C00084B
:100EF00054454C4E45540000019911F8042BD0B2D2
:100F00000191FFF726FF50E7022002900EE0082033
:100F100002900BE000BF0A20029007E01020029030
:100F200004E0FFE72046FFF714FF3EE700BF06F0AE
:100F3000040028B1019800680199091D01910CE095
:100F4000442D05D1019800680199091D019104E023
:100F5000019800680199091D01918246442D06D12E
:100F60000AF0004018B1CAF1000A46F0080600274E
:100F700000BF0298BAFBF0F100FB11A0C5B20298C5
:100F8000BAFBF0FA092D06DD782C01D1272000E00C
:100F900007202844C5B205F13000C2B238467F1C94
:100FA00003A90A54BAF1000F01D0102FE1D306F0C3
:100FB000080020B12D2238467F1C03A90A54B846E8
:100FC00006F0010008B1302000E02020054602E0D4
:100FD0002846FFF7BEFE06F0020020B9404608F1A1
:100FE00001084845F4D300BF791E0F4603AA505CA0
:100FF000FFF7AFFE002FF7D102E02020FFF7A9FE98
:10100000404608F101084845F7D3CEE600BF00206E
:10101000019007B0BDE8F00F5DF814FB2DE9FF412A
:10102000002004460646AF480068D0F82415AD48B5
:10103000006800F5497081426ED9AA48006800F541
:10104000497700BF00200390A64909680868C117C6
:1010500000EB5171C91003AA515CA24A12681278C0
:1010600002F0070301229A4011439E4A1268106859
:10107000C21700EB5272D21003AB995401200190B9
:101080000020029001A8002303AA19460090142012
:101090000CF01DFF0546002D27DD92490968086800
:1010A000C11700EB5171C91003AA515C8D4A126837
:1010B000127802F0070301229A401140A9B1894930
:1010C0000968D1F824358749096801F54971591A29
:1010D0008A1B844909680023086839460CF0D0FC53
:1010E0000446002C01DB27442644002C0CDB7D4801
:1010F0000068D0F824157B48006800F54970081A8C
:10110000B04201DD002D9DDC7648006800F5497095
:1011100074490968C1F82405002C03DA204604B09C
:10112000BDE8F0813046FAE77FB568E00020039023
:101130006C4909680868C11700EB5171C91003AA0E
:10114000515C684A1268127802F0070301229A4043
:101150001143644A12681068C21700EB5272D21031
:1011600003AB9954012001900020029001A80023B4
:101170001A4603A9009014200CF0A9FE0546002D84
:1011800000DA46E0002D38DD564909680868C117C5
:1011900000EB5171C91003AA515C524A12681278CF
:1011A00002F0070301229A40114031B34D4909680A
:1011B00000234FF4007208684A49096801F58E71EE
:1011C0000CF0D9FB0446002C00DA22E004B920E040
:1011D0004448006800F58E7042490968C1F81C0354
:1011E0004048006800F58E7001193E480068C0F85C
:1011F00020133C480068FFF7F3FBFFF70FFF394867
:101200000068D0F81C1337480068D0F820038142EA
:101210008CD000BF33480068D0F81C1331480068F8
:10122000D0F82003814203D14FF0FF3004B070BDED
:101230002C480068D0F81C232A480068D0F81C030A
:10124000401C28490968C1F81C0316783046EDE7B0
:101250002DE9F0470746894690461E46002500BF07
:10126000FFF762FF0446002C02DA0020BDE8F08799
:10127000B8F1000F03DD204618F0FEFE0446B8F179
:10128000000F03DA204618F0FDFE04460D2C00D1B5
:101290001DE0082C0BD155B16D1E46B1E0B2FFF731
:1012A00058FD2020FFF755FDE0B2FFF752FD202C3E
:1012B0000ADBA9F10100A84206DD28466D1C3C545A
:1012C00016B1E0B2FFF745FDFFF7A8FEC8E700BF83
:1012D0000020785526B104A0FFF755FDFFF79EFECC
:1012E0000120C3E7180000200D0A0000024600207C
:1012F000704770B505460E46002408E004EB8400F4
:10130000A44A02EB8001A4A0FFF748FD641C042C52
:10131000F4D3012070BD70B58CB005460E4601A80F
:1013200011F079FC0198039003A818F0E7FE044639
:1013300023469AA2202104A818F04AFF04A8FFF728
:1013400022FD01200CB070BD2DE9F04786B081462A
:101350008A46994DE879A9796A792B79CDE90132E4
:10136000CDE90310E8780090AB786A78297893A0EB
:10137000FFF714FDA5F1280090F86200092818D2A3
:10138000DFE800F00507150911130B0D0F0097A4F6
:1013900011E098A40FE099A40DE09BA40BE09CA49D
:1013A00009E09FA407E0A0A405E0A0A403E0A1A495
:1013B00001E0A3A400BF00BF2146A2A0FFF7EEFCFE
:1013C0007D48283890F86F00012802D0022814D1F7
:1013D00009E09FA0FFF7D7FC77482838416AA1A011
:1013E000FFF7DCFC10E0A5A0FFF7CDFC7248283821
:1013F000816E9CA0FFF7D2FC06E0A5A0FFF7C3FC1E
:10140000A7A0FFF7CBFC00BF00BF6B48283880695E
:1014100030B1694828388169A7A0FFF7BFFC05E013
:1014200065482838C169A8A0FFF7B8FC20266248A3
:101430002838D0F8C403002800DD2B265E48283861
:10144000D0F8C403002800DA2D265B482838D0F8ED
:10145000C4034FF47A7190FBF1F201FB1207564876
:101460002838D0F8C40390FBF1F8002F01DB384690
:1014700000E078420346B8F1000F01DB404601E08E
:10148000C8F100000246314694A0FFF787FC012016
:1014900006B0BDE8F08770B504460D4602E020684E
:1014A000401C20602068007848B118F0E1FD006819
:1014B00021680978405C00F001000028EFD1206825
:1014C000286002E02068401C20602068007848B155
:1014D00018F0CEFD006821680978405C00F001003A
:1014E0000028EFD02068007820B100212268501C2D
:1014F0002060117020682968884201D0012070BDE9
:101500000020FCE7F1B58AB00026012700240CE09A
:1015100002A800EB84010AA8FFF7BDFF02A850F85B
:101520002400007800B1761C641C082CF0D37148AC
:101530000090142304221749029818F0A9FD0546CB
:1015400025B102A930462A699047074638460BB0B4
:10155000F0BD00B591B068A0FFF720FC6BA0FFF7CD
:1015600012FCFFF75BFD09E001A8FFF7CBFF00B914
:101570000CE066A0FFF707FCFFF750FD01230022F7
:10158000402101A8FFF764FE0028EDD100BF11B093
:1015900000BD000078AC010825730A0025612025F4
:1015A000622025642025483A254D3A25532055547C
:1015B000432025590A000000301500206D61737426
:1015C00065722069643A20253032782530327825DA
:1015D000303278253032782530327825303278250F
:1015E000303278253032780A00000000696E697464
:1015F000000000006661756C747900006C6973749A
:10160000656E696E670000007061737369766500CE
:10161000756E63616C6962726174656400000000DC
:10162000736C617665000000707265206D61737483
:101630006572000064697361626C6564000000009B
:101640003F00000073746174653A2025730A00003E
:101650006D6F64653A20656E6420746F20656E64FA
:101660000A000000706174682064656C61793A203A
:101670002564206E7365630A000000006D6F646569
:101680003A207065657220746F20706565720A007B
:101690006D6F64653A20756E6B6E6F776E0A000031
:1016A000706174682064656C61793A20756E6B6E48
:1016B0006F776E0A000000006F66667365743A20EB
:1016C0002564207365630A006F66667365743A204B
:1016D0002564206E7365630A000000006472696609
:1016E000743A20256325642E253033642070706D94
:1016F0000A00000095A501085374617274696E6751
:10170000205368656C6C2E2E2E0A00003E200000CF
:1017100010B501214FF0F05017F05EF817F0DCFA29
:1017200018F0ECF900BF18F0F0F90128FBD0FC48E4
:1017300017F0DDFA0120FA4908600020C8614FF473
:10174000007088620020C86288634864C864102002
:101750000865002048654FF4806048620020C1F8A9
:1017600080004FF00070C1F884000011C1F88C00B7
:101770000020C1F89400C1F898000420C1F8A0002E
:10178000C005C1F8A4004012C1F8A8008001C1F84A
:10179000AC004012C1F8B0004000C1F8B80001210F
:1017A000DF4817F05EFBDF4908600121DE4818F0D2
:1017B000C3F910BD08B54FF4407015F083FF3D200C
:1017C0008DF8000005208DF8010000208DF8020042
:1017D00001208DF80300684615F079FF08BD1CB59F
:1017E0000121072016F0F8FF0121880317F038F8CF
:1017F000012017F05EF98620009003208DF8050087
:1018000002208DF8040000208DF806008DF80700F6
:101810006946C64816F09AFD0B220121C34816F00E
:1018200020FE0B220221C14816F01BFE0B220721CD
:10183000BE4816F016FE4FF4605000906946BC4852
:1018400016F084FD0B220A21B94816F00AFE0B227D
:101850001146B74816F005FE0B220C21B44816F0CD
:1018600000FE0B220D21B24816F0FBFD3220009045
:101870006946B04816F06AFD0B220121AD4816F00A
:10188000F0FD0B220421AB4816F0EBFD0B220521E5
:10189000A84816F0E6FD1CBD10B5FFF7A0FFFFF746
:1018A00089FFFFF735FF1021012017F0A9FA00F09A
:1018B000010028B19B48006840F010009949086079
:1018C00098480068D0B94FF4784014F0D9FD14F06E
:1018D000E4FDC08800EB800084B297A1204614F09C
:1018E000A8FE14F0DAFDC08800EB40004004040CB0
:1018F00096A1204614F09DFE00BFFEE710BD70B516
:10190000054600241121284617F07AFA044644F0CF
:10191000030422461121284617F042FA08B9002094
:1019200070BD1221284617F06BFA044644F02004DB
:1019300022461221284617F033FA08B90020EFE7B3
:101940000120EDE700B585B00121022016F044FF2B
:101950000121880316F084FF00208DF810008DF817
:1019600013004FF48040039003A9714816F0EEFC79
:101970000E21012017F07CF84FF4804001900020E8
:101980008DF808000C208DF8090001208DF80A0060
:1019900001A816F0E9F828208DF8000001208DF844
:1019A00001008DF80300684615F091FE05B000BDFA
:1019B00010B504461221204617F022FA00F4005018
:1019C00080B11021204617F01BFA00F0010018B179
:1019D00063480BF09AFA05E00120624908706048FC
:1019E0000BF0BCFA10BDF0B585B00646002004909F
:1019F000009014F052FDC0888004070C384614F0A3
:101A0000B4FD14F04AFDC08800EB800087B2384670
:101A100014F0ABFD14F041FDC08800EB4000400421
:101A2000070C384614F0A1FD14F037FDC088C0EB58
:101A3000C00087B2384614F098FD14F02EFDC0881F
:101A4000C004070C384614F090FD14F026FDC08841
:101A500000EBC00087B2384614F087FD96F82D00E1
:101A6000C0F30010002859D02D48006800283FD04E
:101A7000002004904FF480520021012017F090F9CB
:101A800000BF0498401C04900121084617F0B8F9E3
:101A900000F0200018B9344904988842F1D300209E
:101AA00004901021012017F0ABF9044604F0040063
:101AB00020B14FF400601A49086202E00020184982
:101AC000086204F0020018B100201549486103E0E3
:101AD0004FF4804012494861244805681048406925
:101AE0000F49096A084305432048056005680560F9
:101AF00017F0A6FB1E4803906FF07F4002901D4830
:101B0000019001AB02AA03A915480AF09AFF1448F4
:101B10000BF0DDF800201349087032E02CE00000E3
:101B20000C0700201C0000204000010000000240C3
:101B300000040240000802402020204574686572BD
:101B40006E657420496E69742020200020202020BA
:101B500020206661696C6564202020202020000020
:101B6000A801002020000020FFFF040000800240A8
:101B7000C0A80110C0A8010117F072FB02480BF0C9
:101B800029F805B0F0BD0000A801002010B5002123
:101B9000FE4811F0CFFA10BD10B564220021FB48B9
:101BA00011F0D7FA10BD70B504462546284611F04D
:101BB00032F8F7488069E060F548C069A06070BD00
:101BC0000020F44981F8120A81F8110A81F8100AFC
:101BD00000BFF148007800B939E0EE4890F8120AE9
:101BE000401C00F00300EB4991F8121A88422DD0F6
:101BF000E84890F8100A28280FD113F0B9FC00200B
:101C0000E44981F8100A084690F8120A401C00F0D6
:101C1000030081F8120A13F0EEFCDE4890F8101A67
:101C200090F8100A401CDB4A82F8100A104690F81F
:101C3000120A00EB401202EBC010D64A02EB800001
:101C4000001D00EB01142046FFF7ADFF00BF64202C
:101C500011F01AFFBDE72DE9F04705468946164603
:101C60001F46DDF820802C46CCA018F0B3FD04F10F
:101C7000280011F01EFB6178481CC11700EB917120
:101C80008910A0EB8101227891420CD06178201D4F
:101C900040F821606078401C00F0030060703868F4
:101CA0002062A4F8248004F1280011F00EFB00212A
:101CB000B64811F03FFABDE8F08738B505460C4646
:101CC00000230422694628460AF040FC9DF80320C0
:101CD0009DF80210B8A018F07DFD9DF80200302894
:101CE00004D03E2803D03F2827D11DE000BF9DF837
:101CF00002003E2808D10020B84908700120487031
:101D0000A5490870A08CE084FF208DF80300042210
:101D1000694628460AF063FCA38C04F12002294698
:101D2000606910F094FD09E00020AC494870012082
:101D3000087003209849087000E000BF00BF38BD5C
:101D40002DE9F04F93B0834600208DF80D008DF8FB
:101D50000C00099042F21270ADF8280010F014FE49
:101D600008900DA811F091FA00F0FF09B9F1000FE9
:101D700005D09BA018F02EFD13B0BDE8F08FA14850
:101D800011F083FA00F0FF09B9F1000F03D09EA013
:101D900018F020FDF0E7012090494870087008987D
:101DA00018B9A1A018F016FDE6E703AAAFF2591181
:101DB000089810F0C8FDBDF82820A349089810F035
:101DC0000CFB01224FF4217100200AF0A8F905460E
:101DD0004FF0FF304FF480630022AFF21B210090E0
:101DE0009AA011F0A6FA00BF1DE00DA811F061FA4B
:101DF0009DF80C1004A850F821809DF80C10481C88
:101E0000C11700EB91718910A0EB8101C9B28DF867
:101E10000C100DA811F059FA03A94046FFF74DFF29
:101E200040460AF037F99DF80C009DF80D108842E5
:101E3000DBD16A480078E8BB57480078012841D1D7
:101E4000544890F8110A534991F8121A884238D030
:101E5000504890F8110A00EB401101EBC0104D49B9
:101E600001EB80047F48008820807E480088401C69
:101E70007C4908808020A0700120E070454890F8DF
:101E8000110A00EB401101EBC010424901EB800048
:101E90006860BDF832300BAA2946089810F0D7FCCC
:101EA000584811F006FA3B4890F8110A401C00F01F
:101EB000030000E006E0374981F8110A514811F0AB
:101EC00004FA23E1454840780028FAD132480078E6
:101ED0000328F6D137E02F4890F8110A00EB4011A3
:101EE00001EBC0102B4901EB80075E480088388069
:101EF0005C480088401C5B4908808020B870012045
:101F0000F870244890F8110A00EB401101EBC01062
:101F1000204901EB80006860BDF832300BAA2946E9
:101F2000089810F094FC374811F0C3F9194890F85C
:101F3000110A401C00F00300164981F8110A3148CB
:101F400011F0C3F900BF134890F8110A114991F834
:101F5000121A8842BFD10F4890F8110A00EB4011C5
:101F600001EBC0100B4901EB80043E480088208043
:101F70003C480088401C3B4908808020A07002201B
:101F8000E070044890F8100A00016DE0F4110020A0
:101F900008150020C80700202400002074696D6522
:101FA000746573745F63616C6C6261636B20636101
:101FB0006C6C210A00000000686561642E6D736717
:101FC0005F747970653A25642C686561642E6D7361
:101FD000675F726573703A25640A00002200002072
:101FE0006E6574506174682E6275667175655F6D9B
:101FF0007574657820637265617465206572726FAF
:10200000722E0A00DC11002054494D455F5445539F
:10201000542E6D75746578206372656174652065F2
:1020200072726F722E0A000074696D655F74687257
:1020300065616420616C6C6F63206D656D702066F6
:1020400061696C210A000000D4AC0108646174610C
:10205000636F6C6C656374696F6E5F7468726561E1
:102060006400000026000020011D032200200AF069
:1020700056F88246324890F8100A0001021D304896
:1020800090F8110A00EB401303EBC0102C4B03EB4C
:10209000800150460AF0A3FABDF832300BAA51462F
:1020A000089810F0D4FB504609F0F4FF00202449B2
:1020B00081F8100A81F8120A81F8110A01202149D9
:1020C000087048700122042100200AF028F8064612
:1020D0001D480088ADF808001B480088401C1A49BC
:1020E00008803F208DF80A00FF208DF80B0002A821
:1020F0007060BDF830300BAA3146089810F0A7FB8D
:10210000304609F0C7FF0020104908706422002102
:102110000F4811F01EF867E608B508210C4810F0CA
:10212000CFFF10B10BA018F055FB0120C302002215
:10213000AFF2F33100900FA011F0FBF808BD0000E2
:10214000C8070020220000202600002024000020D4
:10215000F4110020637265617465207265635F71BC
:10216000756575655F74696D65206661696C210AC6
:102170000000000074696D655F74687265616400D9
:102180002DE9F04180460F46D8E900560021084667
:10219000691A76EB000006DA0023D5EB030563EB42
:1021A00006065C1E00E00124280C40EA06453614B1
:1021B000684A00232846314617F029FFA0FB040196
:1021C0003860644A00232846314617F020FFA2FBFE
:1021D00004017860BDE8F0817CB504460D462068B6
:1021E00000F0004018B9606800F0004058B168463F
:1021F00004F009FE58A0DDE9001218F0EBFA5AA02D
:1022000018F0E8FA7CBD206828606068A8600020AB
:10221000A88000BFF6E77CB505460C466FF000418C
:102220002068884204D220682860A06868600BE0BB
:10223000684604F0E8FD48A0DDE9001218F0CAFA8B
:10224000574818F0C7FA7CBD00BFFCE7414A416817
:1022500091FBF2F10268114401603E4A416891FB32
:10226000F2F1521251434268A2EB412141600168F0
:1022700000290ADD4168002907DA0168491E01606A
:10228000344A4168114441600CE00168002909DAD0
:102290004168002906DD0168491C01602D4A41683A
:1022A000891A4160704730B503460C4615462068D0
:1022B00029680844186060686968084458601846CE
:1022C000FFF7C4FF30BD30B503460C461546206805
:1022D0002968401A186060686968401A5860184692
:1022E000FFF7B4FF30BD00B50346186800EBD071AE
:1022F0004910A0EB41012B4A51435A6802EB41219E
:102300005960186800EBD07149101960586800EBEB
:10231000D071491059601846FFF798FF00BD01467B
:10232000002209B9501E7047B1F5803F01D3090C56
:102330001032FF2901D9090A0832102901D30909ED
:10234000121D042901D38908921C022900D3521CB2
:102350001046E8E700CA9A3B28442025642E253021
:1023600039642920000000004E6567617469766554
:102370002076616C75652063616E6E6F27742062D4
:102380006520636F6E76657274656420696E746F24
:102390002074696D657374616D70200A000000001F
:1023A00010D9010865CD1D0002780A7042784A7084
:1023B00082788A70FF22CA70FE220A71C2784A713E
:1023C00002798A714279CA7170477CB504466846C1
:1023D00004F019FDFCA0DDE9001218F0FBF9FEA0E5
:1023E00018F0F8F9D4F8645401202070611C04F24C
:1023F0003940FFF7D9FF01206081E9786173A8783F
:102400002073A988E181A8792074E8796074287A1A
:10241000A074687AE074D4F80100A065D4F80500CF
:10242000E065012160200153032163200155002153
:10243000A166616629786C20015506216D20015541
:1024400069786E20015595F832106F2001550121F1
:10245000702001550221712001550021782001537F
:10246000298E7A20015304F58060D5E90812C0E96D
:102470001012D5E90A12C0E91212698F40F25640D3
:102480000153A98F801C0153298F001F0153E98E2E
:10249000801E01533520415D40F25140015595F8B1
:1024A000340084F85004A87B84F860047CBD70B5C7
:1024B00004460D4608222946204618F05EF838B931
:1024C000B4F90800B5F90810884201D1012070BDA7
:1024D0000020FCE72DE9FC4704460E4617464FF066
:1024E0000009B4F97E50C8464FE005EB450202EB07
:1024F000C502606F00EBC20106F11800FFF7D7FFBD
:10250000002839D005EB450101EBC501606F00EBF8
:10251000C1004089401C00B205EB450202EBC50238
:10252000616F01EBC20148814FF00109684604F078
:102530006AFCACA0DDE9001218F04CF9ADA018F06F
:1025400049F905EB450202EBC502616F01EBC201DF
:1025500001F130002822314617F0E4FF05EB450277
:1025600002EBC502616F01EBC20101F10C002422F4
:10257000394617F0D7FF0CE0B4F97810681C90FBCF
:10258000F1F201FB120508F10108B4F978004045A9
:10259000ABDC00BFB9F1000F5BD1B4F97810B4F92E
:1025A0007A00814205DA7820005B401C01B2782075
:1025B0000153B4F97C5005EB450101EBC501606F97
:1025C00000EBC100B1690160F1694160308C05EB3D
:1025D000450202EBC502616F01EBC20108810020D8
:1025E00005EB450202EBC502616F01EBC2014881B8
:1025F00005EB450202EBC502616F01EBC20101F17F
:1026000030002822314617F08DFF05EB450202EB22
:10261000C502616F01EBC20101F10C0024223946B1
:1026200017F080FF684604F0EEFB6EA0DDE90012B3
:1026300018F0D0F87AA018F0CDF8B4F97C00401C5E
:10264000B4F97A1090FBF1F201FB120001B27C2088
:102650000153BDE8FC871CB50446684604F0D3FB73
:1026600060A0DDE9001218F0B5F877A018F0B2F814
:102670000020A0820021E161A16161622162D4F8A1
:102680000100A062D4F80500E0622186D4F80110B0
:10269000E163D4F805102164617B84F84510217B47
:1026A00044200155E189A4F84610217C84F84810A3
:1026B000617C84F84910D4F864044089A4F84C0083
:1026C00000214E2001554F20015550200155512029
:1026D00001555220015553200155A0215420015588
:1026E0001CBD1CB50446684604F08DFB3DA0DDE929
:1026F000001218F06FF857A018F06CF81CBD2DE907
:10270000FC4104460D461646684604F07CFB35A0A5
:10271000DDE9001218F05EF851A018F05BF8F08BBC
:10272000401C00B2A08205F1180104F12800FFF757
:10273000BEFE07462FB9D4F85C0440F40060C4F82C
:102740005C04A869A062E869E062298C2186D6F859
:102750001510E163D6F819102164717C84F84510D6
:10276000317C44200155718AA4F84610B17B84F86D
:102770004810317D84F84910B089A4F84C00287ABB
:10278000C0F380014E200155287AC0F340014F204C
:102790000155287A00F0010080F0010080F001016D
:1027A00050200155287AC0F3001151200155287A94
:1027B000C0F3401152200155287AC0F3C0015320C4
:1027C000015596F8201051E028442025642E25302C
:1027D0003964292000000000696E697444617461E5
:1027E0000A00000028642025642E25303964292041
:1027F00000000000616464466F726569676E3A208C
:10280000416E6E6F756E63654D65737361676520AC
:10281000696E6372656D656E746564200A00000000
:10282000616464466F726569676E3A204E65772011
:10283000666F726569676E204D61737465722061A1
:1028400064646564200A0000626D633A206D310A99
:1028500000000000626D633A2070310A0000000041
:10286000626D633A2073310A000000005420015564
:10287000BDE8FC8110B5137C8B73D2F80130C1F830
:102880001530D2F80530C1F81930137B0B74547B26
:102890004C74D4894C82537C0B750023CB83D2F8C3
:1028A00001308361D2F80530C36110BD2DE9FC47CA
:1028B00007460C4690461D46DDF828A000266846CF
:1028C00004F0A1FAAFF2E400DDE9001217F082FF94
:1028D000B9A017F07FFF082205F1150104F11500DA
:1028E00017F04BFE8146B9F1000F4FD0A07BA97BBA
:1028F000884202DD701EBDE8FC87A87BA17B884270
:1029000001DD0120F7E7207C297C884202DD4FF0C1
:10291000FF30F0E7287C217C884201DD0120EAE7D6
:10292000617C687C814202DD4FF0FF30E3E7697C27
:10293000607C814201DD0120DDE7B4F91210B5F9B8
:102940001200814202DD4FF0FF30D4E7B5F91210DA
:10295000B4F91200814201DD0120CCE7207D297D00
:10296000884202DD4FF0FF30C5E7287D217D884297
:1029700001DD0120BFE7B9F1000F02DD4FF0FF30AC
:10298000B9E7B9F1000F01DA0120B4E7B4F91E107C
:10299000B5F91E00401C814202DD4FF0FF30AAE76E
:1029A000B5F91E10B4F91E00401C814201DD012062
:1029B000A1E7B4F91E00B5F91E10884213DD082204
:1029C0000AF1580107F1180017F0D7FD06B2002EE2
:1029D00002DD4FF0FF308EE7002E02DA4FF0FF30BD
:1029E00089E7002087E7B4F91E00B5F91E10884278
:1029F0001DDA08220AF1580108F1180017F0BDFD90
:102A000006B2002E01DD012075E7002E01DA01205B
:102A100071E7684604F0F7F9AFF23820DDE90012FB
:102A200017F0D8FE6AA017F0D5FE002063E7082251
:102A300008F1180107F1180017F09FFD06B2002EEB
:102A400002DD4FF0FF3056E7002E01DA012052E799
:102A5000684604F0D8F9AFF27420DDE9001217F0EF
:102A6000B9FE63A017F0B6FE002044E72DE9FC4153
:102A700006460F4614467820005B28B96220005DA8
:102A8000032801D1BDE8FC81224604F1A80104F12C
:102A90008000FFF7EFFE3B46324604F1A80104F147
:102AA00080000094FFF702FF0546684604F0ABF98A
:102AB000AFF2D020DDE9001217F08CFE294654A0B9
:102AC00017F088FE207B80280BDA012D04D12046E8
:102AD000FFF7C1FD0520D5E72046FFF702FE0620DF
:102AE000D0E7012D04D12046FFF7B5FD0520C9E749
:102AF0003A4631462046FFF702FE0820C2E72DE99C
:102B0000FC410446012600252BE0009405EB450C12
:102B10000CEBC50C676F07EBCC0707F10C0305EB5B
:102B2000450C0CEBC50C676F07EBCC0707F13002C7
:102B300006EB460C0CEBC60C676F07EBCC0707F1F6
:102B40000C0106EB460C0CEBC60C676F07EBCC07D1
:102B500007F13000FFF7AAFE002800DA3546701CA6
:102B600006B2B4F97800B042CFDC684604F04BF905
:102B7000AFF29030DDE9001217F02CFE29462AA0B2
:102B800017F028FE7E20055305EB450303EBC50334
:102B9000626F02EBC30202F10C0105EB450303EB8C
:102BA000C503626F02EBC30202F130002246FFF759
:102BB0005DFFBDE8FC810000626D63446174615398
:102BC0006574436F6D70617269736F6E0A00000007
:102BD000626D6344617461536574436F6D706172BB
:102BE00069736F6E3A204552524F5220310A0000ED
:102BF000626D6344617461536574436F6D7061729B
:102C000069736F6E3A204552524F5220320A0000CB
:102C1000626D6353746174654465636973696F6E53
:102C20003A2025640A000000626D633A20626573F1
:102C300074207265636F72642025640A00000000CE
:102C40000146092918D2DFE801F00507090B0D0F2D
:102C500011131500E3A07047E7A0FCE7E9A0FAE72D
:102C6000ECA0F8E7EFA0F6E7F2A0F4E7F4A0F2E7B3
:102C7000F6A0F0E7FAA0EEE700BF00BFFBA0EAE78E
:102C80007CB504460D46012084F8C803684604F06C
:102C9000BAF8F8A0DDE9001217F09CFD6221085D8A
:102CA000FFF7CEFF06463146F6A017F093FD6220EF
:102CB000005DC01E062847D2DFE800F0383F032E33
:102CC0001011204603F024FC022004F0F3F9042044
:102CD00004F0F0F9002004F0EDF936E000BF072D14
:102CE00001D0082D00D130E0032004F0E3F96F207B
:102CF000005D012802D0022808D103E0012004F081
:102D0000D9F904E0002004F0D5F900E000BF00BFCD
:102D1000204603F0FDFB18E0204603F0F9FB0020FD
:102D200004F0C8F9032004F0C5F90EE0204603F0D2
:102D3000EFFB032004F0BEF907E0204603F0E8FBB8
:102D4000052004F0B7F900E000BF00BF684604F0BA
:102D50005AF8C8A0DDE9001217F03CFD2846FFF73D
:102D60006FFF06463146CCA017F034FD092D71D215
:102D7000DFE805F0050C10143233A2DDFB00002162
:102D800062200155002084F83804A8E10121622066
:102D90000155A4E1022162200155A0E16D20025DF0
:102DA00094F96C00002805DD6C20035D4FF47A7007
:102DB000984005E06C20005D43424FF47A70184162
:102DC00002FB00F1032004F090F903216220015579
:102DD000032084F8380482E100BF032163200155F9
:102DE00094F96E00002805DD6E20025D4FF47A70C4
:102DF000904005E06E20005D42424FF47A70104131
:102E00000146022004F071F9684603F0FCFF99A026
:102E1000DDE9001217F0DEFC94F96E00002805DDF4
:102E20006E20025D4FF47A70904005E06E20005DE8
:102E300042424FF47A70104101469CA017F0CAFC40
:102E400094F96C00002806DD6C20025D4FF47A7066
:102E5000904006E042E16C20005D42424FF47A70FF
:102E600010410146042004F040F96F20005D012864
:102E700002D002281AD100E019E094F9701000295C
:102E800005DD70210A5D4FF47A71914005E07021F3
:102E9000095D4A424FF47A711141481C03F0F8FF72
:102EA00006463146002004F020F900E000BF00BFD4
:102EB00005216220015512E16D20025D94F96C003C
:102EC000002805DD6C20035D4FF47A70984005E022
:102ED0006C20005D43424FF47A70184102FB00F110
:102EE000032004F002F96F20005D02281BD194F941
:102EF0007010491C002907DD7021095D491C4FF441
:102F00007A7202FA01F106E07021095D491C4A4219
:102F10004FF47A711141084603F0BAFF0646314674
:102F2000002004F0E2F8062162200155D7E06D2070
:102F3000025D94F96C00002805DD6C20035D4FF400
:102F40007A70984005E06C20005D43424FF47A703F
:102F5000184102FB00F1032004F0C7F86F20005D68
:102F6000012803D002283BD11DE0B3E094F963109F
:102F7000491C002907DD6321095D491C4FF47A7261
:102F800002FA01F106E06321095D491C4A424FF44F
:102F90007A711141084603F07BFF06463146012055
:102FA00004F0A3F891E094F97010491C002907DDA2
:102FB0007021095D491C4FF47A7202FA01F106E0B2
:102FC0007021095D491C4A424FF47A71114108464B
:102FD00003F05EFF06463146002004F086F874E0F8
:102FE00072E000005054505F494E495449414C49E9
:102FF0005A494E47000000005054505F4641554C1E
:10300000545900005054505F44495341424C454488
:10301000000000005054505F4C495354454E494EF7
:10302000470000005054505F5052455F4D4153548B
:10303000455200005054505F4D41535445520000DA
:103040005054505F50415353495645005054505FBF
:10305000554E43414C494252415445440000000002
:103060005054505F534C415645000000554E4B4E56
:103070004F574E0028442025642E253039642920DE
:10308000000000006C656176696E6720737461747E
:10309000652025730A000000656E746572696E67AD
:1030A0002073746174652025730A000053594E43E0
:1030B00020494E54455256414C2054494D455220CA
:1030C0003A202564200A000000BF00BF07216220CB
:1030D000015504E008216220015500E000BF00BF57
:1030E0007CBD1CB50446684603F08DFEAFF27C0043
:1030F000DDE9001217F06EFBE9A1F8A017F06AFBFA
:1031000004F5737002F05DFE214604F5737002F061
:10311000D9FE60B9684603F076FEF7A0DDE900123B
:1031200017F058FBF8A017F055FB00201CBD2046F7
:10313000FFF74BF903F0A1FF204603F0E9F9204621
:10314000FFF789FA04F1CC01204602F012FB0120BE
:10315000ECE710B588B0044603A803F054FE05A9B7
:1031600003A8FFF739F805AA04F1CC01204602F0C4
:10317000C2FC03AB362204F1CC0104F5737003F0FA
:103180008BF978B901A803F03EFEDBA0DDE901125E
:1031900017F020FBE6A017F01DFB01212046FFF7EA
:1031A0006FFD1EE001A803F02EFEE8A0DDE901128C
:1031B00017F010FBE9A017F00DFBB4F88003401CDA
:1031C00000B2A4F88003039858B104F5896203A9FA
:1031D00003A8FFF768F804F54070DDE90312C0E9C1
:1031E0000E1208B010BD10B588B0044603A803F055
:1031F0000AFE05A903A8FEF7EFFF05AA04F1CC011A
:10320000204602F09AFB03AB2C2204F1CC0104F51A
:10321000737003F019F978B901A803F0F4FDB6A0B2
:10322000DDE9011217F0D6FAD0A017F0D3FA012188
:103230002046FFF725FD1EE001A803F0E4FDC3A032
:10324000DDE9011217F0C6FACFA017F0C3FAB4F8FF
:103250008203401C00B2A4F88203039858B104F51D
:10326000896203A903A8FFF71EF804F54070DDE9A1
:103270000312C0E9181208B010BD7CB504466F20D7
:10328000005D012802D0022865D134E06220005D93
:10329000082800D060E0012003F045FF002829D075
:1032A00094F96310491C002907DD6321095D491C5D
:1032B0004FF47A7202FA01F106E06321095D491CBC
:1032C0004A424FF47A711141084603F0E1FD054688
:1032D0002946012003F009FF684603F094FD9BA0F6
:1032E000DDE9001217F076FAABA017F073FA20466A
:1032F000FFF779FF30E0002003F015FF002829D008
:1033000094F97010491C002907DD7021095D491CE2
:103310004FF47A7202FA01F106E07021095D491C4E
:103320004A424FF47A711141084603F0B1FD054657
:103330002946002003F0D9FE684603F064FD83A00F
:10334000DDE9001217F046FA9EA017F043FA204676
:10335000FFF7FFFE00E000BF00BF7CBD7047704775
:1033600070B586B004460D466F20005D012802D07E
:1033700002287DD10BE0684603F045FD5EA0DDE943
:10338000001217F027FA9AA017F024FAB3E1684662
:1033900003F039FD6DA0DDE9001217F01BFA622180
:1033A000085DFFF74DFC064631469EA017F012FA65
:1033B000D4F82403362810DA684603F024FD4EA022
:1033C000DDE9001217F006FAA5A017F003FA0121B3
:1033D0002046FFF755FC06B070BD6220005D09284D
:1033E00055D2DFE800F005060754541554081400C0
:1033F00000BF00BF00BF684603F005FD53A0DDE934
:10340000001217F0E7F9A1A017F0E4F9E3E700BF15
:1034100094F88D0360B9684603F0F5FCAFF2AC3068
:10342000DDE9001217F0D6F9A2A017F0D3F95FE199
:10343000B4F9A210B4F98003401E814226D104F1F0
:10344000A80104F5FC7002F02AFC04F1A80104A80C
:10345000FEF7E1FE04F54070DDE90412C0E9121246
:1034600002A904F19000FEF78BFE04F55E7200E005
:1034700040E102A902A8FEF716FF012202A9204698
:1034800003F0D3F9002084F88D0331E100BF6846D2
:1034900003F0B9FC2DA0DDE9001217F09BF923E140
:1034A000505450643A322E302E310000000000009B
:1034B000000000000000000000000000000000000C
:1034C00000000000000000000000000000000000FC
:1034D0000000000000000000000000006D616E753B
:1034E00066616374757265724964656E7469747936
:1034F0003A2025730A00000028452025642E253037
:103500003964292000000000646F496E69743A2014
:103510006661696C656420746F20696E69746961A5
:103520006C697A65206E6574776F726B0A000000B3
:1035300069737375655044656C61795265713A20A1
:1035400063616E27742073656E740A0028642025F9
:10355000642E2530396429200000000069737375DA
:10356000655044656C61795265710A0069737375C1
:103570006544656C61795265713A2063616E2774A8
:103580002073656E740A0000697373756544656C19
:1035900061795265710A00006576656E7420444554
:1035A0004C41595245515F494E54455256414C5F2A
:1035B00054494D454F55545F455850495245530A5B
:1035C000000000006576656E74205044454C4159FA
:1035D0005245515F494E54455256414C5F54494DF6
:1035E000454F55545F455850495245530A00000015
:1035F00068616E646C655044656C61795265737086
:10360000466F6C6C6F7755703A20646973726567AA
:103610007561726420696E20453245206D6F646566
:103620000A00000068616E646C655044656C6179E5
:1036300052657370466F6C6C6F7755703A20726587
:1036400063656976656420696E206D6F64652050DE
:10365000325020696E2073746174652025730A00EE
:1036600068616E646C655044656C61795265737015
:10367000466F6C6C6F7755703A2073686F72742068
:103680006D6573736167650A0000000068616E64B0
:103690006C655044656C617952657370466F6C6CF3
:1036A0006F7755703A2064697372656775617264EB
:1036B0000A00000068616E646C655044656C617955
:1036C00052657370466F6C6C6F7755703A206E6FF1
:1036D000742077616974696E672061206D6573730A
:1036E0006167650A00000000F5A017F073F800BFDD
:1036F00000BF00E000BF00BF00BF6CE62DE9F04155
:1037000086B004460D4617466F20005D012802D0A2
:1037100002287DD10CE0684603F075FBAFF228204B
:10372000DDE9001217F056F8F1A017F053F8C3E0E6
:10373000684603F068FBAFF2EC10DDE9001217F009
:1037400049F86221085DFFF77BFA80464146F3A005
:1037500017F040F8D4F82403362812DA684603F04C
:1037600052FBAFF26C20DDE9001217F033F8F8A03D
:1037700017F030F801212046FFF782FA06B0BDE8C5
:10378000F0816220005D092877D2DFE800F00506AD
:10379000070985168508170000BF00BF00BF00BFDE
:1037A000684603F030FBAFF25C20DDE9001217F051
:1037B00011F8F0A017F00EF8E0E700BF67B1684617
:1037C00003F021FBAFF27C20DDE9001217F002F8D4
:1037D000F0A016F0FFFF6CE004F1A80104F5FC7006
:1037E00002F005FA04F1B40104F15800FEF75FFE9F
:1037F0000646B4F98003401EB4F9A21088423DD1B8
:10380000D6B38720005DC0F3400008B3012000E07C
:1038100051E084F88D0304F54070D5E90012C0E949
:10382000141204F1A80104A8FEF7F5FC04F5407099
:10383000DDE90412C0E9101202A904F19000FEF7BC
:103840009FFC04F54070DDE90212C0E91E1222E07F
:10385000002084F88D0304F54070D5E90012C0E91A
:10386000141202A904F19000FEF78AFC002202A9BA
:10387000204602F0DAFF0EE000E00DE0684603F0BB
:10388000C2FAAFF23830DDE9001216F0A3FFCAA089
:1038900016F0A0FF00BF0CE0684603F0B4FAAFF6E4
:1038A0002C00DDE9001216F095FFD3A016F092FF70
:1038B00000BF00BF00E000BF00BF00BF5EE72DE912
:1038C000FF4104460F46002500266F20005D0128B9
:1038D00002D0022879D188E0684603F094FAAFF26A
:1038E0009430DDE9001216F075FF6221085DFFF7E4
:1038F000A7F980464146CAA016F06CFFD4F824030D
:10390000362811DA684603F07EFAAFF21440DDE99A
:10391000001216F05FFFCFA016F05CFF01212046D9
:10392000FFF7AEF9BDE8FF816220005D09285AD299
:10393000DFE800F00506070859595915160000BFC1
:1039400000BF00BF684603F05EFAAFF20040DDE959
:10395000001216F03FFFC7A016F03CFFE2E700BFE1
:1039600004F1A80104F5FC7002F0AAF804F1980132
:1039700004F12800FEF79BFD054604F1B40104F1B3
:103980005800FEF794FD0646B4F98203401EB4F9D0
:10399000A21088421AD1CEB1C5B104F1A80104F534
:1039A0005A70FEF738FC02A904F19000FEF7E8FB1C
:1039B00002AB04F55A7204F55871204602F0F0FE8D
:1039C00094F8A510632001550DE01BE0684603F054
:1039D0001AFAAFF28840DDE9001216F0FBFEADA046
:1039E00016F0F8FE00BF00BF0DE0684603F00BFACA
:1039F000AFF2FC40DDE9001216F0ECFEB2A016F0CA
:103A0000E9FE00E000BF00BF00BF8BE770B586B0E5
:103A100004460D46164603A92846FEF7DDFB03AA19
:103A2000314604F1CC0002F0FDF8362204F1CC015D
:103A300004F5737002F023FD80B901A803F0E3F9E7
:103A4000AFF24C50DDE9011216F0C4FEA9A016F049
:103A5000C1FE01212046FFF713F90CE001A803F095
:103A6000D2F9AFF21850DDE9011216F0B3FEABA0A7
:103A700016F0B0FE00BF06B070BD70B586B004464B
:103A80000D46164603A92846FEF7A6FB03AA3146B3
:103A900004F1CC0002F073F82B46362204F1CC017D
:103AA00004F5737002F0F8FC48B901A803F0ABF913
:103AB000AFF2BC50DDE9011216F08CFE3CE143E1AF
:103AC00068616E646C655044656C617952657370B1
:103AD000466F6C6C6F7755703A20756E7265636FC8
:103AE000676E697A65642073746174650A0000000A
:103AF00068616E646C655044656C61795265737081
:103B00003A206469737265677561726420696E201A
:103B1000453245206D6F64650A00000068616E647F
:103B20006C655044656C6179526573703A207265BA
:103B300063656976656420696E206D6F64652050E9
:103B4000325020696E2073746174652025730A00F9
:103B500068616E646C655044656C61795265737020
:103B60003A2073686F7274206D6573736167650ABC
:103B70000000000068616E646C655044656C61799A
:103B8000526573703A206469737265677561726417
:103B90000A00000068616E646C655044656C617970
:103BA000526573703A2069676E6F72652066726F36
:103BB0006D2073656C660A0068616E646C655044C4
:103BC000656C6179526573703A205044656C617917
:103BD0005265737020646F65736E2774206D617415
:103BE0006368207769746820746865205044656C48
:103BF00061795265712E0A0068616E646C6550448B
:103C0000656C6179526573703A20756E7265636F89
:103C1000676E697A65642073746174650A000000D8
:103C200068616E646C6544656C6179526573703A65
:103C300020726563656976656420696E206D6F64C6
:103C4000652045324520696E2073746174652025B6
:103C5000730A000068616E646C6544656C6179523A
:103C60006573703A2073686F7274206D6573736149
:103C700067650A0068616E646C6544656C617952C1
:103C80006573703A20646973726567756172640A5E
:103C90000000000068616E646C6544656C61795277
:103CA0006573703A20646F65736E2774206D61745C
:103CB00063682077697468207468652064656C6146
:103CC000795265710A00000068616E646C65446534
:103CD0006C6179526573703A2064697372656775B7
:103CE00061726420696E20503250206D6F64650AE5
:103CF0000000000069737375655044656C6179520A
:103D0000657370466F6C6C6F7755703A2063616EA7
:103D100027742073656E740A000000006973737560
:103D2000655044656C617952657370466F6C6C6F59
:103D30007755700A00000000EFA016F04BFD01213E
:103D40002046FEF79DFF14E0286828B104F589623B
:103D500029462846FEF7A7FA01A803F054F8AFF663
:103D60001400DDE9011216F035FDEBA016F032FD6E
:103D700000BF06B070BD2DE9FC4104460D46164655
:103D80006F20005D012802D0022875D10CE0684642
:103D900003F039F8AFF6A000DDE9001216F01AFDC5
:103DA000E2A016F017FD78E0684603F02CF8AFF6B5
:103DB0006400DDE9001216F00DFD6221085DFEF7DA
:103DC0003FFF07463946E4A016F004FDD4F824036B
:103DD000362811DA684603F016F8AFF6E400DDE99C
:103DE000001216F0F7FCE9A016F0F4FC01212046C1
:103DF000FEF746FFBDE8FC816220005D09283CD249
:103E0000DFE800F0050607093B181608170000BF99
:103E100000BF00BF00BF684602F0F5FFAFF6D40058
:103E2000DDE9001216F0D6FCE0A016F0D3FCE1E7C5
:103E300000BF00BF66B1684602F0E5FFAFF6F400D0
:103E4000DDE9001216F0C6FCE0A016F0C3FC21E08C
:103E500004F1800229462046FFF70FFE286850B182
:103E60008720005DC0F3400028B104F1800229469C
:103E70002046FFF7CBFD0DE00EE0684602F0C3FFE1
:103E8000AFF61060DDE9001216F0A4FCD8A016F021
:103E9000A1FC00BF00BF00E000BF00BF00BFA9E75A
:103EA00070B586B004460D46164603A92846FEF7AF
:103EB00093F903AB324604F1CC01204601F0BCFD7E
:103EC000362204F1CC0104F5737002F0CBFA80B90C
:103ED00001A802F098FFAFF6E010DDE9011216F03C
:103EE00079FCCDA016F076FC01212046FEF7C8FE35
:103EF0000CE001A802F087FFAFF6B010DDE9011277
:103F000016F068FCCBA016F065FC00BF06B070BDD3
:103F10002DE9FC4104460D4616466F20005D012840
:103F200002D0022875D166E0684602F06CFFAFF659
:103F3000E410DDE9001216F04DFC6221085DFEF789
:103F40007FFE07463946BFA016F044FCD4F8240390
:103F50002C2811DA684602F056FFAFF66420DDE93E
:103F6000001216F037FCC4A016F034FC01212046E4
:103F7000FEF786FEBDE8FC816220005D09282BD299
:103F8000DFE800F0050607092A232A08160000BF0B
:103F900000BF00BF00BF684602F035FFAFF65420F7
:103FA000DDE9001216F016FCBBA016F013FCE1E7E9
:103FB000684602F028FFAFF66C20DDE9001216F02B
:103FC00009FCB5A016F006FC13E004F180022946B6
:103FD0002046FFF765FF0CE0684602F014FFAFF6DD
:103FE0006C70DDE9001216F0F5FBB2A016F0F2FBE2
:103FF00000BF00BF0EE0684602F005FFAFF60830D4
:10400000DDE9001216F0E6FBB3A016F0E3FB01E0D9
:10401000FFE700BF00BF00BFACE7F0B587B00446C4
:104020000D46002601A802F0EEFEAFF6E020DDE925
:10403000011216F0CFFB6221085DFEF701FE074674
:104040003946AFA016F0C6FBD4F824032C2811DAA9
:1040500001A802F0D8FEAFF66030DDE9011216F0DB
:10406000B9FBB1A016F0B6FB01212046FEF708FE11
:1040700007B0F0BD65B101A802F0C5FEAFF634305F
:10408000DDE9011216F0A6FBAFA016F0A3FBEFE7E7
:104090006220005D09282CD2DFE800F00506070841
:1040A0002B2D2C15160000BF00BF00BF01A802F089
:1040B000AAFEAFF66830DDE9011216F08BFBABA06B
:1040C00016F088FBD6E100BF04F1980104F1280046
:1040D000FEF7EDF9064694F88C0348B901A802F002
:1040E00092FEAFF69830DDE9011216F073FB4BE15A
:1040F0004EE1B3E1A1E193E16973737565504465E5
:104100006C6179526573703A2063616E2774207315
:10411000656E740A0000000069737375655044652C
:104120006C6179526573700A0000000068616E640A
:104130006C655044656C61795265713A20646973AD
:104140007265677561726420696E20453245206D25
:104150006F64650A0000000068616E646C6550441D
:10416000656C61795265713A20726563656976653F
:104170006420696E206D6F64652050325020696E36
:104180002073746174652025730A000068616E6491
:104190006C655044656C61795265713A2073686F43
:1041A0007274206D6573736167650A0068616E647F
:1041B0006C655044656C61795265713A206469732D
:1041C000726567756172640A0000000068616E6460
:1041D0006C655044656C61795265713A2069676E0F
:1041E0006F72652066726F6D2073656C660A0000E1
:1041F00068616E646C655044656C61795265713AB2
:1042000020756E7265636F676E697A65642073747A
:104210006174650A00000000697373756544656C1C
:104220006179526573703A2063616E2774207365FB
:104230006E740A00697373756544656C61795265C3
:1042400073700A0068616E646C6544656C617952D4
:1042500065713A20726563656976656420696E20D0
:104260006D6F64652045324520696E2073746174FA
:10427000652025730A00000068616E646C65446502
:104280006C61795265713A2073686F7274206D6544
:1042900073736167650A000068616E646C654465EC
:1042A0006C61795265713A206469737265677561F2
:1042B00072640A0068616E646C6544656C61795271
:1042C00065713A20756E7265636F676E697A6564B1
:1042D0002073746174650A0068616E646C6544657E
:1042E0006C61795265713A206469737265677561B2
:1042F000726420696E20503250206D6F64650A0030
:1043000068616E646C65466F6C6C6F7775703A208F
:10431000726563656976656420696E207374617483
:10432000652025730A00000068616E646C65466F45
:104330006C6C6F7775703A2073686F7274206D655E
:1043400073736167650A000068616E646C65466F2F
:104350006C6C6F7775703A2069676E6F7265206656
:10436000726F6D2073656C660A00000068616E6490
:104370006C65466F6C6C6F7775703A206469737208
:104380006567756172640A00F2A016F023FA71E0A5
:1043900066B901A802F037FDAFF65060DDE9011201
:1043A00016F018FAF5A016F015FA63E0B4F98A13BE
:1043B000B4F9A20081420CD001A802F024FDAFF6AE
:1043C0007460DDE9011216F005FAF74816F002FAFA
:1043D00050E004F1A80104F5FC7001F01CFB002082
:1043E00084F88C0304F1A80105A8FDF714FF03A9C4
:1043F00004F19000FDF7C4FE04F55C7203A903A864
:10440000FDF751FF03AB05AA04F55671204602F0F3
:1044100042F9204602F056FA2046FEF72EFF29E028
:1044200001A802F0F0FCAFF6DC60DDE9011216F045
:10443000D1F9DEA016F0CEF91CE001A802F0E3FCF1
:10444000AFF6F860DDE9011216F0C4F9AFF2E4004E
:1044500016F0C0F92046FEF710FF0BE001A802F0AD
:10446000D2FCDC48DDE9011216F0B4F9DAA016F04E
:10447000B1F900BF00BF00BFFAE52DE9F04186B0F9
:1044800004460E4615460027684602F0BCFCAFF60F
:104490004470DDE9001216F09DF96221085DFEF717
:1044A000CFFB80464146D5A016F094F9D4F82403FA
:1044B0002C2812DA684602F0A6FCAFF6C470DDE9DB
:1044C000001216F087F9D6A016F084F901212046D3
:1044D000FEF7D6FB06B0BDE8F0816220005D09283A
:1044E00073D2DFE800F00506079B9B738C14150060
:1044F00000BF00BF684602F086FCAFF6B070DDE991
:10450000001216F067F9CDA016F064F992E000BF32
:1045100065B1684602F077FCAFF6D070DDE90012B5
:1045200016F058F9CBA016F055F983E004F1980184
:1045300004F12800FDF7BBFF074667B9684602F0A3
:1045400062FCAFF6F870DDE9001216F043F9C9A07D
:1045500016F040F96EE004F54070D6E90012C0E9AB
:10456000161202A904F19000FDF70AFE8720005DF3
:10457000C0F3400068B1012084F88C03A220005BE6
:10458000A4F88A0304F54070DDE90212C0E91C12A8
:104590001AE004F1A80104F5FC7001F0BDF9002057
:1045A00084F88C0304F1A80104A8FDF734FE02ABE3
:1045B00004AA04F55671204602F06DF8204602F078
:1045C00081F92046FEF759FE34E027E05DB96846E0
:1045D00002F019FCB148DDE9001216F0FBF8B0A0BA
:1045E00016F0F8F826E0684602F00DFCAB48DDE96D
:1045F000001216F0EFF897A016F0ECF81AE06846F3
:1046000002F001FCA548DDE9001216F0E3F88BA0EA
:1046100016F0E0F82046FEF730FE0BE0684602F0A8
:10462000F2FB9E48DDE9001216F0D4F883A016F0E4
:10463000D1F800BF00BF00BF4CE72DE9FC410446A4
:104640000D460026684602F0DEFB9448DDE90012C4
:1046500016F0C0F86221085DFEF7F2FA0746394607
:1046600098A016F0B7F8D4F82403402811DA684669
:1046700002F0C9FB89485438DDE9001216F0AAF8A7
:104680009AA016F0A7F801212046FEF7F9FABDE836
:10469000FC815DB1684602F0B6FB8048DDE900129E
:1046A00016F098F899A016F095F8F0E76220005DF2
:1046B000092849D2DFE800F00506074C4B4A4913A8
:1046C000140000BF00BF684602F09DFB7348DDE99F
:1046D000001216F07FF896A016F07CF883E100BF78
:1046E000D4F85C0440F04000C4F85C0404F1980184
:1046F00004F12800FDF7DBFE064604F1A80104F5ED
:10470000FC7001F0A1F8F6B104F1A80204F18001F7
:104710002046FDF7F4FF6D20025D94F96C0000283F
:1047200005DD6C20035D4FF47A70984005E06C2045
:10473000005D43424FF47A70184102FB00F1032000
:1047400002F0D3FC14E101E12BE112E12AE12AE1BC
:104750002AE1000068616E646C65466F6C6C6F776F
:1047600075703A206E6F742077616974696E672086
:1047700061206D6573736167650A000068616E642E
:104780006C65466F6C6C6F7775703A206E6F742035
:1047900066726F6D2063757272656E7420706172DF
:1047A000656E740A0000000068D9010868616E64D3
:1047B0006C65466F6C6C6F7775703A2066726F6DC2
:1047C00020616E6F74686572206D61737465720A22
:1047D000000000007430000868616E646C65466F0C
:1047E0006C6C6F7775703A20756E7265636F676E6B
:1047F000697A65642073746174650A0068616E6427
:104800006C6553796E633A20726563656976656499
:1048100020696E2073746174652025730A0000009E
:1048200068616E646C6553796E633A2073686F7269
:1048300074206D6573736167650A000068616E645A
:104840006C6553796E633A2064697372656775614C
:1048500072640A0068616E646C6553796E633A2015
:1048600069676E6F72652066726F6D2073656C6626
:104870000A00000068616E646C6553796E633A20CB
:1048800069676E6F72652066726F6D20616E6F74FE
:10489000686572206D61737465720A004C3500089A
:1048A00068616E646C6553796E633A2066726F6DF1
:1048B00020616E6F74686572206D61737465720A31
:1048C0000000000068616E646C65416E6E6F756E0D
:1048D00063653A20726563656976656420696E2058
:1048E00073746174652025730A00000068616E644A
:1048F0006C65416E6E6F756E63653A2073686F729A
:1049000074206D6573736167650A000068616E6489
:104910006C65416E6E6F756E63653A2069676E6F88
:1049200072652066726F6D2073656C660A00000008
:1049300068616E646C65416E6E6F756E63653A207A
:10494000646973726567756172640A00684602F093
:104950005AFAFE48DDE9001215F03CFFFCA015F004
:1049600039FF04F1A80204F180012046FDF7B2FDF1
:1049700039E06D20025D94F96C00002805DD6C20A3
:10498000035D4FF47A70984005E06C20005D43426F
:104990004FF47A70184102FB00F1032002F0A5FBEE
:1049A00000BF00BF00BF00BF684602F02CFAE74816
:1049B000DDE9001215F00EFFE5A015F00BFF04F184
:1049C000A80104F5FC7000F03FFFD4F85C0440F04F
:1049D0004000C4F85C0404F1A80204F18001204600
:1049E000FDF778FD00BF00BF00BF50E67FB504466D
:1049F00000200290039094F8C803D0B9002104F578
:104A0000737001F018FB0646002E10DA684602F0BB
:104A1000FAF9CE485438DDE9001215F0DBFED8A0D3
:104A200015F0D8FE01212046FEF72AF97FBD06B910
:104A3000FCE702AA04F5FC7104F5737001F066FB53
:104A4000C4F82403684602F0DEF9C048DDE900122C
:104A500015F0C0FED2A0D4F8241315F0BBFED4F894
:104A60002403002810DA684602F0CDF9B74854381C
:104A7000DDE9001215F0AEFED2A015F0ABFE01216B
:104A80002046FEF7FDF8D1E7D4F8240300282ED104
:104A900002AA04F5FC7104F5737001F042FBC4F83E
:104AA0002403684602F0AFF9A848DDE9001215F0CA
:104AB00091FED0A0D4F8241315F08CFED4F8240372
:104AC000002810DA684602F09EF9A0485438DDE963
:104AD000001215F07FFED0A015F07CFE01212046CB
:104AE000FEF7CEF8A2E7D4F8240300B99EE7012030
:104AF00084F8C803D4F82403222810DA684602F0A8
:104B000082F992485438DDE9001215F063FECFA017
:104B100015F060FE01212046FEF7B2F886E704F1A9
:104B2000800104F5FC7000F0DBFD684602F06BF9D3
:104B30008648DDE9001215F04DFE8120015DCEA012
:104B400015F048FE8220015D7120005D81420DD08C
:104B5000684602F058F97D48DDE9001215F03AFE8A
:104B60008220015DCDA015F035FE5FE78620005D57
:104B7000A17C88420DD0684602F045F97348DDE912
:104B8000001215F027FE8620015DCDA015F022FE53
:104B90004CE704F1980104F15800FDF788FC054644
:104BA00045B90298002805DD04F5886202A902A82B
:104BB000FDF789FB8120005D0E283ED2DFE800F082
:104BC0000C171D283D3D3D3D12232E073833294645
:104BD0002046FFF732FD3EE02A4602A92046FFF7B5
:104BE0004CFC38E029462046FFF717FA33E02A4606
:104BF00002A92046FFF78CF92DE02A4602A920469B
:104C0000FFF7B9F827E029462046FEF758FE22E0D4
:104C10002A4602A92046FEF771FD1CE029462046DF
:104C2000FEF79EFB17E029462046FEF798FB12E0B0
:104C300029462046FEF792FB0DE0684602F0E3F8B5
:104C4000AB48DDE9001215F0C5FD8120015DA9A08A
:104C500015F0C0FD00BF00BF00BFE7E61CB504466D
:104C600004F1CC01204600F0A4FD402204F1CC0167
:104C700004F5737001F0F6FB80B9684602F0C3F8E2
:104C800032485438DDE9001215F0A4FDA2A015F059
:104C9000A1FD01212046FDF7F3FF10E0684602F078
:104CA000B2F82A48DDE9001215F094FDA1A015F034
:104CB00091FDB4F88603401C00B2A4F886031CBD25
:104CC00030B585B004460D4602A92846FDF784FAA2
:104CD00002AA04F1CC01204600F06FFE2C2204F160
:104CE000CC0104F5737001F0BDFB80B9684602F099
:104CF0008AF816485438DDE9001215F06BFD91A0D2
:104D000015F068FD01212046FDF7BAFF0BE068466B
:104D100002F079F80D48DDE9001215F05BFD90A076
:104D200015F058FD00BF05B030BD10B588B0044681
:104D300003A802F068F805A903A8FDF74DFA05AA33
:104D400004F1CC01204600F0B9FD11E14C3500081A
:104D500068616E646C65416E6E6F756E63653A2056
:104D600066726F6D20616E6F7468657220666F7217
:104D70006569676E206D61737465720A00000000DA
:104D800068616E646C653A206661696C6564207464
:104D90006F20706F6C6C20736F636B6574730A00A7
:104DA00068616E646C653A206E6574526563764521
:104DB00076656E742072657475726E656420256404
:104DC0000A00000068616E646C653A206661696C77
:104DD000656420746F2072656365697665206F6E07
:104DE00020746865206576656E7420736F636B65EB
:104DF000740A000068616E646C653A206E657452D6
:104E000065637647656E6572616C20726574757254
:104E10006E65642025640A0068616E646C653A20E2
:104E20006661696C656420746F207265636569767C
:104E300065206F6E207468652067656E6572616CB1
:104E400020736F636B65740A0000000068616E6414
:104E50006C653A206D6573736167652073686F7266
:104E6000746572207468616E206865616465722083
:104E70006C656E6774680A0068616E646C653A20E0
:104E8000756E7061636B6564206D657373616765D2
:104E900020747970652025640A00000068616E64E2
:104EA0006C653A2069676E6F72652076657273690A
:104EB0006F6E202564206D6573736167650A00005D
:104EC00068616E646C653A2069676E6F7265206D0B
:104ED0006573736167652066726F6D20646F6D61C5
:104EE000696E4E756D6265722025640A00000000CF
:104EF0007430000868616E646C653A20756E726586
:104F0000636F676E697A6564206D65737361676549
:104F10002025640A000000006973737565416E6E98
:104F20006F756E63653A2063616E27742073656EDA
:104F3000740A00006973737565416E6E6F756E63F8
:104F4000650A00006973737565466F6C6C6F7775E1
:104F5000703A2063616E27742073656E740A0000D6
:104F60006973737565466F6C6C6F7775700A0000B6
:104F700003AB2C2204F1CC0104F5737001F064FA48
:104F800078B901A801F03FFFF248DDE9011215F000
:104F900021FCF1A015F01EFC01212046FDF770FE5A
:104FA0001FE001A801F02FFFEA485430DDE90112AB
:104FB00015F010FCEEA015F00DFCB4F88403401CB5
:104FC00000B2A4F88403039858B1207848B104F5DE
:104FD000896203A903A8FDF766F903A92046FFF734
:104FE0006FFE08B010BD7CB50446002084F8C803ED
:104FF0006220005DC01E06285FD2DFE800F00306D5
:105000000708040500BF00BF00BF00BF00BF94F841
:105010005C04C0F3801000284ED0684601F0F3FE17
:10502000CC485430DDE9001215F0D4FBD3A015F0C4
:10503000D1FBD4F85C0420F04000C4F85C042046A6
:10504000FDF75DFD84F83804684601F0DCFEC148D8
:105050005430DDE9001215F0BDFB94F83804FDF77B
:10506000EFFD05462946CCA015F0B4FB94F83804B2
:10507000052802D006281DD100E000BFE07C10B951
:10508000207BFF2815D1032084F83804684601F0FE
:10509000BAFEB0485430DDE9001215F09BFB94F8DD
:1050A0003804FDF7CDFD05462946BBA015F092FB5F
:1050B00000BF00E000BF00BF00E000BF00BF94F8E9
:1050C000380409287ED2DFE800F0A9AAAA9EAA0522
:1050D0001DAA28006220005D042802D005280AD1FC
:1050E00008E0052002F01FF818B105212046FDF761
:1050F000C7FD05E004E004212046FDF7C1FD00BF27
:1051000000BF9AE06220005D94F83814884203D012
:1051100006212046FDF7B4FD8FE06220005D0728E0
:1051200002D0082868D130E0B4F85C04C0F38020D5
:10513000A0B1684601F067FE9D48DDE9001215F058
:1051400049FB9CA015F046FBD4F85C0420F4806079
:10515000C4F85C0408212046FDF792FDB4F85C0415
:10516000C0F3C02080B1684601F04DFE9048DDE9F3
:10517000001215F02FFB97A015F02CFBD4F85C045F
:1051800020F40060C4F85C043BE0B4F85C04C0F3B5
:105190004020A0B1684601F036FE8548DDE90012E6
:1051A00015F018FB92A015F015FBD4F85C0420F460
:1051B0000070C4F85C0407212046FDF761FDB4F8D7
:1051C0005C0400E02BE0C0F3C020A0B1684601F011
:1051D0001AFE7748DDE9001215F0FCFA7DA015F003
:1051E000F9FAD4F85C0420F40060C4F85C040721E8
:1051F0002046FDF745FD04E007212046FDF740FD70
:1052000000BF00BF19E06220005D94F838148842A6
:1052100003D003212046FDF733FD0EE00DE0684684
:1052200001F0F1FD6248DDE9001215F0D3FA94F8BF
:10523000381477A015F0CEFA00BF00BF6220005DE1
:10524000092872D2DFE800F00513232771762A2897
:1052500029002046FDF745FF20B103212046FDF738
:105260000FFD03E001212046FDF70AFD45E16846F8
:1052700001F0C9FD4E48DDE9001215F0ABFA6FA050
:1052800015F0A8FA00212046FDF7FAFC7CBD204667
:10529000FFF7ACFB31E100BF00BF00BF032001F00E
:1052A00042FF002842D0684601F0ADFD2948543045
:1052B000DDE9001215F08EFA6221085DFDF7C0FCF1
:1052C0000546294668A015F085FA0021782001538B
:1052D0007C200153E07CF8B9207BFF281CD02046BD
:1052E000FDF7B9F9052084F83804684601F08BFD14
:1052F00018485430DDE9001215F06CFA94F83804BF
:10530000FDF79EFC0546294623A015F063FA05210A
:105310002046FDF7B5FC07E06220005D032803D0BE
:1053200003212046FDF7ACFCE7E0D8E02046FFF77C
:105330005DFBE2E0022001F0F6FE48B1684601F0B4
:1053400062FD04485430DDE9001215F043FAA7E08D
:10535000ACE00000F8340008697373756553796E2A
:10536000633A2063616E27742073656E740A0000CF
:10537000697373756553796E630A00006576656EAF
:10538000742053544154455F4445434953494F4E5B
:105390005F4556454E540A007265636F6D6D656ECC
:1053A00064696E672073746174652025730A000058
:1053B000743000086576656E74204D415354455233
:1053C0005F434C4F434B5F53454C45435445440A60
:1053D000000000006576656E74204D4153544552BF
:1053E0005F434C4F434B5F4348414E4745440A009F
:1053F0006576656E742053594E4348524F4E495A54
:105400004154494F4E5F4641554C540A000000003C
:10541000646F53746174653A20756E7265636F676B
:105420006E697A6564207265636F6D6D656E646523
:10543000642073746174652025640A006576656E66
:1054400074204641554C545F434C454152454420DD
:10545000666F72207374617465205054505F4641CA
:10546000554C540A000000006576656E7420414E6C
:105470004E4F554E43455F524543454950545F5446
:10548000494D454F55545F45585049524553206644
:105490006F722073746174652025730A0000000028
:1054A00017A015F097F92046FFF73FFC042001F004
:1054B0003AFE68B1684601F0A6FC2048DDE900121A
:1054C00015F088F91EA015F085F92046FFF7C6FBF8
:1054D0002046FFF78BFA2046FDF7CFFE0DE0684629
:1054E00001F091FC2648DDE9001215F073F9622005
:1054F000015D24A015F06EF900BF00BF00BFC5E636
:105500006576656E742053594E435F494E5445523B
:1055100056414C5F54494D454F55545F455850498D
:1055200052455320666F7220737461746520505425
:10553000505F4D41535445520A0000004C3500085D
:105540006576656E7420414E4E4F554E43455F491A
:105550004E54455256414C5F54494D454F55545F4A
:105560004558504952455320666F722073746174D8
:1055700065205054505F4D41535445520A0000007D
:1055800074300008646F53746174653A20646F204E
:10559000756E7265636F676E697A65642073746196
:1055A00074652025640A000038B50446012033499B
:1055B000087000204870FE213048C170F8202F4943
:1055C000887041F288312D488180F8202B498871FC
:1055D000C8710020087201204872222048810020F2
:1055E00081F834000021254880F835104162C162FD
:1055F00006214187012181870221C186102101876F
:1056000005201E4908860120887381F832001C4A53
:105610001C4801F038FB38B10FF0AAFF1AA015F0B2
:10562000D9F80FF0E8FF38BD00BF00BF1548FFF7FD
:10563000DAFC00211A4800F0FEFC0028F6DC6422A7
:10564000694618480DF085FDEFE710B500211548B3
:105650000DF070FD10BD08B5082112480DF030FDA9
:1056600010B111A015F0B6F80120C30200221949AB
:10567000009019A00DF05DFE08BD0000C4140020CC
:105680007019002008150020505450443A207374BB
:105690006172747570206661696C65640000000059
:1056A000D418002068140020505450443A206661F9
:1056B000696C656420746F20637265617465207025
:1056C00074705F616C6572745F7175657565206D6E
:1056D000626F7800A9550008505450440000000043
:1056E0002DE9F04105460C462878001120702878F5
:1056F00000F00F006070687800F00F00A0706988FB
:1057000088B203F0E9F800B2A0802879A071E88897
:10571000A4F80700AE68EF68304603F0E9F800210E
:10572000C4E904012069C4E90410384603F0E0F834
:10573000D4E90423801843F10001C4E90401686935
:10574000A061A869E061A98B88B203F0C5F801B235
:105750002184E98B88B203F0BFF800B2608495F829
:10576000200084F8240095F8210084F82500BDE885
:10577000F08170B505460C46002626707120405D0C
:105780006070A87C2071287808B10220A0710020E8
:10579000A060E060A86D6061E86DA0616021495B78
:1057A00088B203F099F800B2A0837F2084F821002A
:1057B00070BD70B505460C46207800F0F0002070F2
:1057C000207840F00B002070402003F085F800B2F4
:1057D0006080B5F8861388B203F07EF800B2E083EB
:1057E000052084F820006C20405D84F821001634E8
:1057F0000020E0602061A082B5F84C1088B203F070
:105800006BF800B2E08295F848006076287BA076BD
:10581000687BE076E98988B203F05EF800B2A08385
:1058200095F84900A077E96BC4F81F10286C44F87C
:10583000230FA98A88B203F04FF800B2A080542049
:10584000405DA071393C70BD70B504460D462434EE
:1058500034F8021C88B203F03FF8A880206803F0F7
:1058600047F82860606803F043F8A860218988B28F
:1058700003F032F800B2A881E07AA873207B287484
:10588000617B6974E18988B203F026F801B269820C
:10589000207C2875D4F81100C5F81500D4F815003F
:1058A000C5F81900B4F8191088B203F015F800B261
:1058B000E883E07E243C85F8200070BD70B5064684
:1058C0000C461546207800F0F000207020782070FB
:1058D0002C2003F001F800B26080B6F8841388B27F
:1058E00002F0FAFF00B2E083002084F820006E206E
:1058F000805D84F821000020A060E060A88802F0AC
:10590000EBFF00B26084286802F0F2FF6062A868D2
:1059100002F0EEFFA06270BD70B504460D46618CCA
:1059200088B202F0D9FFA880606A02F0E1FF286027
:10593000A06A02F0DDFFA86070BD70B506460C4697
:105940001546207800F0F0002070207840F001002B
:1059500020702C2002F0C0FF00B26080B6F88213E5
:1059600088B202F0B9FF00B2E083012084F8200081
:105970007F2084F821000020A060E060A88802F069
:10598000ABFF00B26084286802F0B2FF6062A868D2
:1059900002F0AEFFA06270BD70B504460D46618C8A
:1059A00088B202F099FFA880606A02F0A1FF286027
:1059B000A06A02F09DFFA86070BD70B506460C4657
:1059C0001546207800F0F0002070207840F00800A4
:1059D00020702C2002F080FF00B26080B6F88413A3
:1059E000491E88B202F078FF00B2E083022084F8FA
:1059F00020006E20805D84F82100A88802F06CFFF2
:105A000000B26084286802F073FF6062A86802F048
:105A10006FFFA06270BD70B504460D46618C88B200
:105A200002F05AFFA880606A02F062FF2860A06A54
:105A300002F05EFFA86070BD2DE9F04107460C46FC
:105A400015461E46207800F0F0002070207840F0C7
:105A500009002070362002F03FFF00B26080002075
:105A6000A060E060686902F043FFA060286902F06E
:105A70003FFFE060698C88B202F02EFF00B2E08345
:105A8000032084F820006320C05D84F82100B088E2
:105A900002F022FF00B26084306802F029FF6062E9
:105AA000B06802F025FFA062A869E062E86920639F
:105AB000298C88B202F010FF00B2A086BDE8F08108
:105AC00070B504460D46618C88B202F005FFA880CF
:105AD000606A02F00DFF2860A06A02F009FFA8606A
